{
  "_format": "hh-sol-artifact-1",
  "contractName": "IVYFi",
  "sourceName": "contracts/IVY.sol",
  "abi": [
    {
      "inputs": [
        {
          "internalType": "address",
          "name": "spender",
          "type": "address"
        },
        {
          "internalType": "uint256",
          "name": "value",
          "type": "uint256"
        }
      ],
      "name": "approve",
      "outputs": [
        {
          "internalType": "bool",
          "name": "",
          "type": "bool"
        }
      ],
      "stateMutability": "nonpayable",
      "type": "function"
    },
    {
      "inputs": [
        {
          "internalType": "uint256",
          "name": "value",
          "type": "uint256"
        }
      ],
      "name": "burn",
      "outputs": [],
      "stateMutability": "nonpayable",
      "type": "function"
    },
    {
      "inputs": [
        {
          "internalType": "address",
          "name": "account",
          "type": "address"
        },
        {
          "internalType": "uint256",
          "name": "value",
          "type": "uint256"
        }
      ],
      "name": "burnFrom",
      "outputs": [],
      "stateMutability": "nonpayable",
      "type": "function"
    },
    {
      "inputs": [
        {
          "internalType": "string",
          "name": "name_",
          "type": "string"
        },
        {
          "internalType": "string",
          "name": "symbol_",
          "type": "string"
        },
        {
          "internalType": "uint8",
          "name": "decimals_",
          "type": "uint8"
        },
        {
          "internalType": "uint256",
          "name": "maxSupply_",
          "type": "uint256"
        }
      ],
      "stateMutability": "nonpayable",
      "type": "constructor"
    },
    {
      "inputs": [
        {
          "internalType": "address",
          "name": "spender",
          "type": "address"
        },
        {
          "internalType": "uint256",
          "name": "allowance",
          "type": "uint256"
        },
        {
          "internalType": "uint256",
          "name": "needed",
          "type": "uint256"
        }
      ],
      "name": "ERC20InsufficientAllowance",
      "type": "error"
    },
    {
      "inputs": [
        {
          "internalType": "address",
          "name": "sender",
          "type": "address"
        },
        {
          "internalType": "uint256",
          "name": "balance",
          "type": "uint256"
        },
        {
          "internalType": "uint256",
          "name": "needed",
          "type": "uint256"
        }
      ],
      "name": "ERC20InsufficientBalance",
      "type": "error"
    },
    {
      "inputs": [
        {
          "internalType": "address",
          "name": "approver",
          "type": "address"
        }
      ],
      "name": "ERC20InvalidApprover",
      "type": "error"
    },
    {
      "inputs": [
        {
          "internalType": "address",
          "name": "receiver",
          "type": "address"
        }
      ],
      "name": "ERC20InvalidReceiver",
      "type": "error"
    },
    {
      "inputs": [
        {
          "internalType": "address",
          "name": "sender",
          "type": "address"
        }
      ],
      "name": "ERC20InvalidSender",
      "type": "error"
    },
    {
      "inputs": [
        {
          "internalType": "address",
          "name": "spender",
          "type": "address"
        }
      ],
      "name": "ERC20InvalidSpender",
      "type": "error"
    },
    {
      "inputs": [
        {
          "internalType": "address",
          "name": "to",
          "type": "address"
        },
        {
          "internalType": "uint256",
          "name": "amount",
          "type": "uint256"
        }
      ],
      "name": "mint",
      "outputs": [],
      "stateMutability": "nonpayable",
      "type": "function"
    },
    {
      "inputs": [
        {
          "internalType": "address",
          "name": "owner",
          "type": "address"
        }
      ],
      "name": "OwnableInvalidOwner",
      "type": "error"
    },
    {
      "inputs": [
        {
          "internalType": "address",
          "name": "account",
          "type": "address"
        }
      ],
      "name": "OwnableUnauthorizedAccount",
      "type": "error"
    },
    {
      "anonymous": false,
      "inputs": [
        {
          "indexed": true,
          "internalType": "address",
          "name": "owner",
          "type": "address"
        },
        {
          "indexed": true,
          "internalType": "address",
          "name": "spender",
          "type": "address"
        },
        {
          "indexed": false,
          "internalType": "uint256",
          "name": "value",
          "type": "uint256"
        }
      ],
      "name": "Approval",
      "type": "event"
    },
    {
      "anonymous": false,
      "inputs": [
        {
          "indexed": true,
          "internalType": "address",
          "name": "previousOwner",
          "type": "address"
        },
        {
          "indexed": true,
          "internalType": "address",
          "name": "newOwner",
          "type": "address"
        }
      ],
      "name": "OwnershipTransferred",
      "type": "event"
    },
    {
      "inputs": [],
      "name": "pause",
      "outputs": [],
      "stateMutability": "nonpayable",
      "type": "function"
    },
    {
      "anonymous": false,
      "inputs": [
        {
          "indexed": false,
          "internalType": "address",
          "name": "account",
          "type": "address"
        }
      ],
      "name": "Paused",
      "type": "event"
    },
    {
      "inputs": [],
      "name": "renounceOwnership",
      "outputs": [],
      "stateMutability": "nonpayable",
      "type": "function"
    },
    {
      "inputs": [
        {
          "internalType": "address",
          "name": "to",
          "type": "address"
        },
        {
          "internalType": "uint256",
          "name": "value",
          "type": "uint256"
        }
      ],
      "name": "transfer",
      "outputs": [
        {
          "internalType": "bool",
          "name": "",
          "type": "bool"
        }
      ],
      "stateMutability": "nonpayable",
      "type": "function"
    },
    {
      "anonymous": false,
      "inputs": [
        {
          "indexed": true,
          "internalType": "address",
          "name": "from",
          "type": "address"
        },
        {
          "indexed": true,
          "internalType": "address",
          "name": "to",
          "type": "address"
        },
        {
          "indexed": false,
          "internalType": "uint256",
          "name": "value",
          "type": "uint256"
        }
      ],
      "name": "Transfer",
      "type": "event"
    },
    {
      "inputs": [
        {
          "internalType": "address",
          "name": "from",
          "type": "address"
        },
        {
          "internalType": "address",
          "name": "to",
          "type": "address"
        },
        {
          "internalType": "uint256",
          "name": "value",
          "type": "uint256"
        }
      ],
      "name": "transferFrom",
      "outputs": [
        {
          "internalType": "bool",
          "name": "",
          "type": "bool"
        }
      ],
      "stateMutability": "nonpayable",
      "type": "function"
    },
    {
      "inputs": [
        {
          "internalType": "address",
          "name": "newOwner",
          "type": "address"
        }
      ],
      "name": "transferOwnership",
      "outputs": [],
      "stateMutability": "nonpayable",
      "type": "function"
    },
    {
      "inputs": [],
      "name": "unpause",
      "outputs": [],
      "stateMutability": "nonpayable",
      "type": "function"
    },
    {
      "anonymous": false,
      "inputs": [
        {
          "indexed": false,
          "internalType": "address",
          "name": "account",
          "type": "address"
        }
      ],
      "name": "Unpaused",
      "type": "event"
    },
    {
      "inputs": [
        {
          "internalType": "address",
          "name": "owner",
          "type": "address"
        },
        {
          "internalType": "address",
          "name": "spender",
          "type": "address"
        }
      ],
      "name": "allowance",
      "outputs": [
        {
          "internalType": "uint256",
          "name": "",
          "type": "uint256"
        }
      ],
      "stateMutability": "view",
      "type": "function"
    },
    {
      "inputs": [
        {
          "internalType": "address",
          "name": "account",
          "type": "address"
        }
      ],
      "name": "balanceOf",
      "outputs": [
        {
          "internalType": "uint256",
          "name": "",
          "type": "uint256"
        }
      ],
      "stateMutability": "view",
      "type": "function"
    },
    {
      "inputs": [],
      "name": "decimals",
      "outputs": [
        {
          "internalType": "uint8",
          "name": "",
          "type": "uint8"
        }
      ],
      "stateMutability": "view",
      "type": "function"
    },
    {
      "inputs": [],
      "name": "maxSupply",
      "outputs": [
        {
          "internalType": "uint256",
          "name": "",
          "type": "uint256"
        }
      ],
      "stateMutability": "view",
      "type": "function"
    },
    {
      "inputs": [],
      "name": "name",
      "outputs": [
        {
          "internalType": "string",
          "name": "",
          "type": "string"
        }
      ],
      "stateMutability": "view",
      "type": "function"
    },
    {
      "inputs": [],
      "name": "owner",
      "outputs": [
        {
          "internalType": "address",
          "name": "",
          "type": "address"
        }
      ],
      "stateMutability": "view",
      "type": "function"
    },
    {
      "inputs": [],
      "name": "paused",
      "outputs": [
        {
          "internalType": "bool",
          "name": "",
          "type": "bool"
        }
      ],
      "stateMutability": "view",
      "type": "function"
    },
    {
      "inputs": [],
      "name": "symbol",
      "outputs": [
        {
          "internalType": "string",
          "name": "",
          "type": "string"
        }
      ],
      "stateMutability": "view",
      "type": "function"
    },
    {
      "inputs": [],
      "name": "totalSupply",
      "outputs": [
        {
          "internalType": "uint256",
          "name": "",
          "type": "uint256"
        }
      ],
      "stateMutability": "view",
      "type": "function"
    }
  ],
  "bytecode": "608060405234801562000010575f80fd5b5060405162001f0838038062001f088339818101604052810190620000369190620003e5565b33848481600390816200004a9190620006c0565b5080600490816200005c9190620006c0565b5050505f73ffffffffffffffffffffffffffffffffffffffff168173ffffffffffffffffffffffffffffffffffffffff1603620000d2575f6040517f1e4fbdf7000000000000000000000000000000000000000000000000000000008152600401620000c99190620007e7565b60405180910390fd5b620000e3816200012a60201b60201c565b505f600560146101000a81548160ff02191690831515021790555081600560156101000a81548160ff021916908360ff160217905550806006819055505050505062000802565b5f60055f9054906101000a900473ffffffffffffffffffffffffffffffffffffffff1690508160055f6101000a81548173ffffffffffffffffffffffffffffffffffffffff021916908373ffffffffffffffffffffffffffffffffffffffff1602179055508173ffffffffffffffffffffffffffffffffffffffff168173ffffffffffffffffffffffffffffffffffffffff167f8be0079c531659141344cd1fd0a4f28419497f9722a3daafe3b4186f6b6457e060405160405180910390a35050565b5f604051905090565b5f80fd5b5f80fd5b5f80fd5b5f80fd5b5f601f19601f8301169050919050565b7f4e487b71000000000000000000000000000000000000000000000000000000005f52604160045260245ffd5b6200024e8262000206565b810181811067ffffffffffffffff8211171562000270576200026f62000216565b5b80604052505050565b5f62000284620001ed565b905062000292828262000243565b919050565b5f67ffffffffffffffff821115620002b457620002b362000216565b5b620002bf8262000206565b9050602081019050919050565b5f5b83811015620002eb578082015181840152602081019050620002ce565b5f8484015250505050565b5f6200030c620003068462000297565b62000279565b9050828152602081018484840111156200032b576200032a62000202565b5b62000338848285620002cc565b509392505050565b5f82601f830112620003575762000356620001fe565b5b815162000369848260208601620002f6565b91505092915050565b5f60ff82169050919050565b620003898162000372565b811462000394575f80fd5b50565b5f81519050620003a7816200037e565b92915050565b5f819050919050565b620003c181620003ad565b8114620003cc575f80fd5b50565b5f81519050620003df81620003b6565b92915050565b5f805f80608085870312156200040057620003ff620001f6565b5b5f85015167ffffffffffffffff81111562000420576200041f620001fa565b5b6200042e8782880162000340565b945050602085015167ffffffffffffffff811115620004525762000451620001fa565b5b620004608782880162000340565b9350506040620004738782880162000397565b92505060606200048687828801620003cf565b91505092959194509250565b5f81519050919050565b7f4e487b71000000000000000000000000000000000000000000000000000000005f52602260045260245ffd5b5f6002820490506001821680620004e157607f821691505b602082108103620004f757620004f66200049c565b5b50919050565b5f819050815f5260205f209050919050565b5f6020601f8301049050919050565b5f82821b905092915050565b5f600883026200055b7fffffffffffffffffffffffffffffffffffffffffffffffffffffffffffffffff826200051e565b6200056786836200051e565b95508019841693508086168417925050509392505050565b5f819050919050565b5f620005a8620005a26200059c84620003ad565b6200057f565b620003ad565b9050919050565b5f819050919050565b620005c38362000588565b620005db620005d282620005af565b8484546200052a565b825550505050565b5f90565b620005f1620005e3565b620005fe818484620005b8565b505050565b5b818110156200062557620006195f82620005e7565b60018101905062000604565b5050565b601f82111562000674576200063e81620004fd565b62000649846200050f565b8101602085101562000659578190505b6200067162000668856200050f565b83018262000603565b50505b505050565b5f82821c905092915050565b5f620006965f198460080262000679565b1980831691505092915050565b5f620006b0838362000685565b9150826002028217905092915050565b620006cb8262000492565b67ffffffffffffffff811115620006e757620006e662000216565b5b620006f38254620004c9565b6200070082828562000629565b5f60209050601f83116001811462000736575f841562000721578287015190505b6200072d8582620006a3565b8655506200079c565b601f1984166200074686620004fd565b5f5b828110156200076f5784890151825560018201915060208501945060208101905062000748565b868310156200078f57848901516200078b601f89168262000685565b8355505b6001600288020188555050505b505050505050565b5f73ffffffffffffffffffffffffffffffffffffffff82169050919050565b5f620007cf82620007a4565b9050919050565b620007e181620007c3565b82525050565b5f602082019050620007fc5f830184620007d6565b92915050565b6116f880620008105f395ff3fe608060405234801561000f575f80fd5b506004361061011f575f3560e01c806370a08231116100ab57806395d89b411161006f57806395d89b41146102bb578063a9059cbb146102d9578063d5abeb0114610309578063dd62ed3e14610327578063f2fde38b146103575761011f565b806370a082311461023d578063715018a61461026d57806379cc6790146102775780638456cb59146102935780638da5cb5b1461029d5761011f565b8063313ce567116100f2578063313ce567146101bf5780633f4ba83a146101dd57806340c10f19146101e757806342966c68146102035780635c975abb1461021f5761011f565b806306fdde0314610123578063095ea7b31461014157806318160ddd1461017157806323b872dd1461018f575b5f80fd5b61012b610373565b60405161013891906111a6565b60405180910390f35b61015b60048036038101906101569190611257565b610403565b60405161016891906112af565b60405180910390f35b610179610425565b60405161018691906112d7565b60405180910390f35b6101a960048036038101906101a491906112f0565b61042e565b6040516101b691906112af565b60405180910390f35b6101c761045c565b6040516101d4919061135b565b60405180910390f35b6101e5610472565b005b61020160048036038101906101fc9190611257565b610484565b005b61021d60048036038101906102189190611374565b61055f565b005b610227610573565b60405161023491906112af565b60405180910390f35b6102576004803603810190610252919061139f565b610589565b60405161026491906112d7565b60405180910390f35b6102756105ce565b005b610291600480360381019061028c9190611257565b6105e1565b005b61029b610601565b005b6102a5610613565b6040516102b291906113d9565b60405180910390f35b6102c361063b565b6040516102d091906111a6565b60405180910390f35b6102f360048036038101906102ee9190611257565b6106cb565b60405161030091906112af565b60405180910390f35b6103116106ed565b60405161031e91906112d7565b60405180910390f35b610341600480360381019061033c91906113f2565b6106f3565b60405161034e91906112d7565b60405180910390f35b610371600480360381019061036c919061139f565b610775565b005b6060600380546103829061145d565b80601f01602080910402602001604051908101604052809291908181526020018280546103ae9061145d565b80156103f95780601f106103d0576101008083540402835291602001916103f9565b820191905f5260205f20905b8154815290600101906020018083116103dc57829003601f168201915b5050505050905090565b5f8061040d6107f9565b905061041a818585610800565b600191505092915050565b5f600254905090565b5f806104386107f9565b9050610445858285610812565b6104508585856108a4565b60019150509392505050565b5f600560159054906101000a900460ff16905090565b61047a610994565b610482610a1b565b565b61048c610994565b5f73ffffffffffffffffffffffffffffffffffffffff168273ffffffffffffffffffffffffffffffffffffffff16036104fa576040517f08c379a00000000000000000000000000000000000000000000000000000000081526004016104f1906114d7565b60405180910390fd5b60065481610506610425565b6105109190611522565b1115610551576040517f08c379a00000000000000000000000000000000000000000000000000000000081526004016105489061159f565b60405180910390fd5b61055b8282610a7d565b5050565b61057061056a6107f9565b82610afc565b50565b5f600560149054906101000a900460ff16905090565b5f805f8373ffffffffffffffffffffffffffffffffffffffff1673ffffffffffffffffffffffffffffffffffffffff1681526020019081526020015f20549050919050565b6105d6610994565b6105df5f610b7b565b565b6105f3826105ed6107f9565b83610812565b6105fd8282610afc565b5050565b610609610994565b610611610c3e565b565b5f60055f9054906101000a900473ffffffffffffffffffffffffffffffffffffffff16905090565b60606004805461064a9061145d565b80601f01602080910402602001604051908101604052809291908181526020018280546106769061145d565b80156106c15780601f10610698576101008083540402835291602001916106c1565b820191905f5260205f20905b8154815290600101906020018083116106a457829003601f168201915b5050505050905090565b5f806106d56107f9565b90506106e28185856108a4565b600191505092915050565b60065481565b5f60015f8473ffffffffffffffffffffffffffffffffffffffff1673ffffffffffffffffffffffffffffffffffffffff1681526020019081526020015f205f8373ffffffffffffffffffffffffffffffffffffffff1673ffffffffffffffffffffffffffffffffffffffff1681526020019081526020015f2054905092915050565b61077d610994565b5f73ffffffffffffffffffffffffffffffffffffffff168173ffffffffffffffffffffffffffffffffffffffff16036107ed575f6040517f1e4fbdf70000000000000000000000000000000000000000000000000000000081526004016107e491906113d9565b60405180910390fd5b6107f681610b7b565b50565b5f33905090565b61080d8383836001610ca1565b505050565b5f61081d84846106f3565b90507fffffffffffffffffffffffffffffffffffffffffffffffffffffffffffffffff811461089e578181101561088f578281836040517ffb8f41b2000000000000000000000000000000000000000000000000000000008152600401610886939291906115bd565b60405180910390fd5b61089d84848484035f610ca1565b5b50505050565b5f73ffffffffffffffffffffffffffffffffffffffff168373ffffffffffffffffffffffffffffffffffffffff1603610914575f6040517f96c6fd1e00000000000000000000000000000000000000000000000000000000815260040161090b91906113d9565b60405180910390fd5b5f73ffffffffffffffffffffffffffffffffffffffff168273ffffffffffffffffffffffffffffffffffffffff1603610984575f6040517fec442f0500000000000000000000000000000000000000000000000000000000815260040161097b91906113d9565b60405180910390fd5b61098f838383610e70565b505050565b61099c6107f9565b73ffffffffffffffffffffffffffffffffffffffff166109ba610613565b73ffffffffffffffffffffffffffffffffffffffff1614610a19576109dd6107f9565b6040517f118cdaa7000000000000000000000000000000000000000000000000000000008152600401610a1091906113d9565b60405180910390fd5b565b610a23611089565b5f600560146101000a81548160ff0219169083151502179055507f5db9ee0a495bf2e6ff9c91a7834c1ba4fdd244a5e8aa4e537bd38aeae4b073aa610a666107f9565b604051610a7391906113d9565b60405180910390a1565b5f73ffffffffffffffffffffffffffffffffffffffff168273ffffffffffffffffffffffffffffffffffffffff1603610aed575f6040517fec442f05000000000000000000000000000000000000000000000000000000008152600401610ae491906113d9565b60405180910390fd5b610af85f8383610e70565b5050565b5f73ffffffffffffffffffffffffffffffffffffffff168273ffffffffffffffffffffffffffffffffffffffff1603610b6c575f6040517f96c6fd1e000000000000000000000000000000000000000000000000000000008152600401610b6391906113d9565b60405180910390fd5b610b77825f83610e70565b5050565b5f60055f9054906101000a900473ffffffffffffffffffffffffffffffffffffffff1690508160055f6101000a81548173ffffffffffffffffffffffffffffffffffffffff021916908373ffffffffffffffffffffffffffffffffffffffff1602179055508173ffffffffffffffffffffffffffffffffffffffff168173ffffffffffffffffffffffffffffffffffffffff167f8be0079c531659141344cd1fd0a4f28419497f9722a3daafe3b4186f6b6457e060405160405180910390a35050565b610c466110d2565b6001600560146101000a81548160ff0219169083151502179055507f62e78cea01bee320cd4e420270b5ea74000d11b0c9f74754ebdbfc544b05a258610c8a6107f9565b604051610c9791906113d9565b60405180910390a1565b5f73ffffffffffffffffffffffffffffffffffffffff168473ffffffffffffffffffffffffffffffffffffffff1603610d11575f6040517fe602df05000000000000000000000000000000000000000000000000000000008152600401610d0891906113d9565b60405180910390fd5b5f73ffffffffffffffffffffffffffffffffffffffff168373ffffffffffffffffffffffffffffffffffffffff1603610d81575f6040517f94280d62000000000000000000000000000000000000000000000000000000008152600401610d7891906113d9565b60405180910390fd5b8160015f8673ffffffffffffffffffffffffffffffffffffffff1673ffffffffffffffffffffffffffffffffffffffff1681526020019081526020015f205f8573ffffffffffffffffffffffffffffffffffffffff1673ffffffffffffffffffffffffffffffffffffffff1681526020019081526020015f20819055508015610e6a578273ffffffffffffffffffffffffffffffffffffffff168473ffffffffffffffffffffffffffffffffffffffff167f8c5be1e5ebec7d5bd14f71427d1e84f3dd0314c0f7b2291e5b200ac8c7c3b92584604051610e6191906112d7565b60405180910390a35b50505050565b5f73ffffffffffffffffffffffffffffffffffffffff168373ffffffffffffffffffffffffffffffffffffffff1603610ec0578060025f828254610eb49190611522565b92505081905550610f8e565b5f805f8573ffffffffffffffffffffffffffffffffffffffff1673ffffffffffffffffffffffffffffffffffffffff1681526020019081526020015f2054905081811015610f49578381836040517fe450d38c000000000000000000000000000000000000000000000000000000008152600401610f40939291906115bd565b60405180910390fd5b8181035f808673ffffffffffffffffffffffffffffffffffffffff1673ffffffffffffffffffffffffffffffffffffffff1681526020019081526020015f2081905550505b5f73ffffffffffffffffffffffffffffffffffffffff168273ffffffffffffffffffffffffffffffffffffffff1603610fd5578060025f828254039250508190555061101f565b805f808473ffffffffffffffffffffffffffffffffffffffff1673ffffffffffffffffffffffffffffffffffffffff1681526020019081526020015f205f82825401925050819055505b8173ffffffffffffffffffffffffffffffffffffffff168373ffffffffffffffffffffffffffffffffffffffff167fddf252ad1be2c89b69c2b068fc378daa952ba7f163c4a11628f55a4df523b3ef8360405161107c91906112d7565b60405180910390a3505050565b611091610573565b6110d0576040517f08c379a00000000000000000000000000000000000000000000000000000000081526004016110c79061163c565b60405180910390fd5b565b6110da610573565b1561111a576040517f08c379a0000000000000000000000000000000000000000000000000000000008152600401611111906116a4565b60405180910390fd5b565b5f81519050919050565b5f82825260208201905092915050565b5f5b83811015611153578082015181840152602081019050611138565b5f8484015250505050565b5f601f19601f8301169050919050565b5f6111788261111c565b6111828185611126565b9350611192818560208601611136565b61119b8161115e565b840191505092915050565b5f6020820190508181035f8301526111be818461116e565b905092915050565b5f80fd5b5f73ffffffffffffffffffffffffffffffffffffffff82169050919050565b5f6111f3826111ca565b9050919050565b611203816111e9565b811461120d575f80fd5b50565b5f8135905061121e816111fa565b92915050565b5f819050919050565b61123681611224565b8114611240575f80fd5b50565b5f813590506112518161122d565b92915050565b5f806040838503121561126d5761126c6111c6565b5b5f61127a85828601611210565b925050602061128b85828601611243565b9150509250929050565b5f8115159050919050565b6112a981611295565b82525050565b5f6020820190506112c25f8301846112a0565b92915050565b6112d181611224565b82525050565b5f6020820190506112ea5f8301846112c8565b92915050565b5f805f60608486031215611307576113066111c6565b5b5f61131486828701611210565b935050602061132586828701611210565b925050604061133686828701611243565b9150509250925092565b5f60ff82169050919050565b61135581611340565b82525050565b5f60208201905061136e5f83018461134c565b92915050565b5f60208284031215611389576113886111c6565b5b5f61139684828501611243565b91505092915050565b5f602082840312156113b4576113b36111c6565b5b5f6113c184828501611210565b91505092915050565b6113d3816111e9565b82525050565b5f6020820190506113ec5f8301846113ca565b92915050565b5f8060408385031215611408576114076111c6565b5b5f61141585828601611210565b925050602061142685828601611210565b9150509250929050565b7f4e487b71000000000000000000000000000000000000000000000000000000005f52602260045260245ffd5b5f600282049050600182168061147457607f821691505b60208210810361148757611486611430565b5b50919050565b7f43616e6e6f74206d696e7420746f20746865207a65726f2061646472657373005f82015250565b5f6114c1601f83611126565b91506114cc8261148d565b602082019050919050565b5f6020820190508181035f8301526114ee816114b5565b9050919050565b7f4e487b71000000000000000000000000000000000000000000000000000000005f52601160045260245ffd5b5f61152c82611224565b915061153783611224565b925082820190508082111561154f5761154e6114f5565b5b92915050565b7f4d617820737570706c79206578636565646564000000000000000000000000005f82015250565b5f611589601383611126565b915061159482611555565b602082019050919050565b5f6020820190508181035f8301526115b68161157d565b9050919050565b5f6060820190506115d05f8301866113ca565b6115dd60208301856112c8565b6115ea60408301846112c8565b949350505050565b7f5061757361626c653a206e6f74207061757365640000000000000000000000005f82015250565b5f611626601483611126565b9150611631826115f2565b602082019050919050565b5f6020820190508181035f8301526116538161161a565b9050919050565b7f5061757361626c653a20706175736564000000000000000000000000000000005f82015250565b5f61168e601083611126565b91506116998261165a565b602082019050919050565b5f6020820190508181035f8301526116bb81611682565b905091905056fea2646970667358221220804a6dd5440b05c5b9f0b19977751844b84e1bcd146e214a35185ca5d99f363464736f6c63430008140033",
  "linkReferences": {},
  "deployedLinkReferences": {}
}