{
  "_format": "hh-sol-artifact-1",
  "contractName": "DynamicTokenSale",
  "sourceName": "contracts/TokenSaleContract.sol",
  "abi": [
    {
      "inputs": [
        {
          "internalType": "address",
          "name": "_token",
          "type": "address"
        },
        {
          "internalType": "uint256",
          "name": "_tokenPrice",
          "type": "uint256"
        }
      ],
      "stateMutability": "nonpayable",
      "type": "constructor"
    },
    {
      "inputs": [
        {
          "internalType": "address",
          "name": "target",
          "type": "address"
        }
      ],
      "name": "AddressEmptyCode",
      "type": "error"
    },
    {
      "inputs": [
        {
          "internalType": "address",
          "name": "account",
          "type": "address"
        }
      ],
      "name": "AddressInsufficientBalance",
      "type": "error"
    },
    {
      "inputs": [
        {
          "internalType": "uint256",
          "name": "_tokenAmount",
          "type": "uint256"
        }
      ],
      "name": "buyTokens",
      "outputs": [],
      "stateMutability": "payable",
      "type": "function"
    },
    {
      "inputs": [],
      "name": "FailedInnerCall",
      "type": "error"
    },
    {
      "inputs": [
        {
          "internalType": "address",
          "name": "owner",
          "type": "address"
        }
      ],
      "name": "OwnableInvalidOwner",
      "type": "error"
    },
    {
      "inputs": [
        {
          "internalType": "address",
          "name": "account",
          "type": "address"
        }
      ],
      "name": "OwnableUnauthorizedAccount",
      "type": "error"
    },
    {
      "inputs": [
        {
          "internalType": "address",
          "name": "token",
          "type": "address"
        }
      ],
      "name": "SafeERC20FailedOperation",
      "type": "error"
    },
    {
      "anonymous": false,
      "inputs": [
        {
          "indexed": false,
          "internalType": "bool",
          "name": "status",
          "type": "bool"
        }
      ],
      "name": "EmergencyStopActivated",
      "type": "event"
    },
    {
      "anonymous": false,
      "inputs": [
        {
          "indexed": false,
          "internalType": "uint256",
          "name": "amount",
          "type": "uint256"
        }
      ],
      "name": "FundsWithdrawn",
      "type": "event"
    },
    {
      "anonymous": false,
      "inputs": [
        {
          "indexed": true,
          "internalType": "address",
          "name": "previousOwner",
          "type": "address"
        },
        {
          "indexed": true,
          "internalType": "address",
          "name": "newOwner",
          "type": "address"
        }
      ],
      "name": "OwnershipTransferred",
      "type": "event"
    },
    {
      "anonymous": false,
      "inputs": [
        {
          "indexed": false,
          "internalType": "bool",
          "name": "isActive",
          "type": "bool"
        }
      ],
      "name": "PresaleStatusChanged",
      "type": "event"
    },
    {
      "anonymous": false,
      "inputs": [
        {
          "indexed": true,
          "internalType": "address",
          "name": "buyer",
          "type": "address"
        },
        {
          "indexed": false,
          "internalType": "string",
          "name": "reason",
          "type": "string"
        },
        {
          "indexed": false,
          "internalType": "uint256",
          "name": "attemptedAmount",
          "type": "uint256"
        },
        {
          "indexed": false,
          "internalType": "uint256",
          "name": "contractTokenBalance",
          "type": "uint256"
        },
        {
          "indexed": false,
          "internalType": "uint256",
          "name": "msgValue",
          "type": "uint256"
        }
      ],
      "name": "PurchaseFailure",
      "type": "event"
    },
    {
      "inputs": [],
      "name": "renounceOwnership",
      "outputs": [],
      "stateMutability": "nonpayable",
      "type": "function"
    },
    {
      "inputs": [
        {
          "internalType": "bool",
          "name": "_status",
          "type": "bool"
        }
      ],
      "name": "setEmergencyStop",
      "outputs": [],
      "stateMutability": "nonpayable",
      "type": "function"
    },
    {
      "inputs": [],
      "name": "setInitialTokenAmount",
      "outputs": [],
      "stateMutability": "nonpayable",
      "type": "function"
    },
    {
      "inputs": [
        {
          "internalType": "uint256",
          "name": "_newPrice",
          "type": "uint256"
        }
      ],
      "name": "setTokenPrice",
      "outputs": [],
      "stateMutability": "nonpayable",
      "type": "function"
    },
    {
      "inputs": [],
      "name": "startPresale",
      "outputs": [],
      "stateMutability": "nonpayable",
      "type": "function"
    },
    {
      "inputs": [],
      "name": "stopPresale",
      "outputs": [],
      "stateMutability": "nonpayable",
      "type": "function"
    },
    {
      "anonymous": false,
      "inputs": [
        {
          "indexed": false,
          "internalType": "uint256",
          "name": "newPrice",
          "type": "uint256"
        }
      ],
      "name": "TokenPriceUpdated",
      "type": "event"
    },
    {
      "anonymous": false,
      "inputs": [
        {
          "indexed": true,
          "internalType": "address",
          "name": "buyer",
          "type": "address"
        },
        {
          "indexed": false,
          "internalType": "uint256",
          "name": "tokenAmount",
          "type": "uint256"
        },
        {
          "indexed": false,
          "internalType": "uint256",
          "name": "cost",
          "type": "uint256"
        },
        {
          "indexed": false,
          "internalType": "uint256",
          "name": "excess",
          "type": "uint256"
        }
      ],
      "name": "TokensPurchased",
      "type": "event"
    },
    {
      "anonymous": false,
      "inputs": [
        {
          "indexed": false,
          "internalType": "uint256",
          "name": "amount",
          "type": "uint256"
        }
      ],
      "name": "TokensWithdrawn",
      "type": "event"
    },
    {
      "inputs": [
        {
          "internalType": "address",
          "name": "newOwner",
          "type": "address"
        }
      ],
      "name": "transferOwnership",
      "outputs": [],
      "stateMutability": "nonpayable",
      "type": "function"
    },
    {
      "inputs": [],
      "name": "withdrawFunds",
      "outputs": [],
      "stateMutability": "nonpayable",
      "type": "function"
    },
    {
      "inputs": [
        {
          "internalType": "uint256",
          "name": "_amount",
          "type": "uint256"
        }
      ],
      "name": "withdrawTokens",
      "outputs": [],
      "stateMutability": "nonpayable",
      "type": "function"
    },
    {
      "inputs": [
        {
          "internalType": "uint256",
          "name": "_tokenAmount",
          "type": "uint256"
        }
      ],
      "name": "calculateCost",
      "outputs": [
        {
          "internalType": "uint256",
          "name": "",
          "type": "uint256"
        }
      ],
      "stateMutability": "view",
      "type": "function"
    },
    {
      "inputs": [],
      "name": "emergencyStop",
      "outputs": [
        {
          "internalType": "bool",
          "name": "",
          "type": "bool"
        }
      ],
      "stateMutability": "view",
      "type": "function"
    },
    {
      "inputs": [],
      "name": "getAvailableTokens",
      "outputs": [
        {
          "internalType": "uint256",
          "name": "",
          "type": "uint256"
        }
      ],
      "stateMutability": "view",
      "type": "function"
    },
    {
      "inputs": [],
      "name": "getContractBalance",
      "outputs": [
        {
          "internalType": "uint256",
          "name": "tokenBalance",
          "type": "uint256"
        },
        {
          "internalType": "uint256",
          "name": "nativeBalance",
          "type": "uint256"
        }
      ],
      "stateMutability": "view",
      "type": "function"
    },
    {
      "inputs": [],
      "name": "getTokenPrice",
      "outputs": [
        {
          "internalType": "uint256",
          "name": "",
          "type": "uint256"
        }
      ],
      "stateMutability": "view",
      "type": "function"
    },
    {
      "inputs": [],
      "name": "initialTokenAmount",
      "outputs": [
        {
          "internalType": "uint256",
          "name": "",
          "type": "uint256"
        }
      ],
      "stateMutability": "view",
      "type": "function"
    },
    {
      "inputs": [],
      "name": "owner",
      "outputs": [
        {
          "internalType": "address",
          "name": "",
          "type": "address"
        }
      ],
      "stateMutability": "view",
      "type": "function"
    },
    {
      "inputs": [],
      "name": "presaleActive",
      "outputs": [
        {
          "internalType": "bool",
          "name": "",
          "type": "bool"
        }
      ],
      "stateMutability": "view",
      "type": "function"
    },
    {
      "inputs": [],
      "name": "token",
      "outputs": [
        {
          "internalType": "contract IERC20",
          "name": "",
          "type": "address"
        }
      ],
      "stateMutability": "view",
      "type": "function"
    },
    {
      "inputs": [],
      "name": "tokenPrice",
      "outputs": [
        {
          "internalType": "uint256",
          "name": "",
          "type": "uint256"
        }
      ],
      "stateMutability": "view",
      "type": "function"
    }
  ],
  "bytecode": "60a060405234801562000010575f80fd5b50604051620023d8380380620023d8833981810160405281019062000036919062000337565b3360015f819055505f73ffffffffffffffffffffffffffffffffffffffff168173ffffffffffffffffffffffffffffffffffffffff1603620000b1575f6040517f1e4fbdf7000000000000000000000000000000000000000000000000000000008152600401620000a891906200038d565b60405180910390fd5b620000c281620001d760201b60201c565b505f73ffffffffffffffffffffffffffffffffffffffff168273ffffffffffffffffffffffffffffffffffffffff160362000134576040517f08c379a00000000000000000000000000000000000000000000000000000000081526004016200012b9062000406565b60405180910390fd5b5f811162000179576040517f08c379a0000000000000000000000000000000000000000000000000000000008152600401620001709062000474565b60405180910390fd5b8173ffffffffffffffffffffffffffffffffffffffff1660808173ffffffffffffffffffffffffffffffffffffffff1681525050806002819055506001600360016101000a81548160ff021916908315150217905550505062000494565b5f60015f9054906101000a900473ffffffffffffffffffffffffffffffffffffffff1690508160015f6101000a81548173ffffffffffffffffffffffffffffffffffffffff021916908373ffffffffffffffffffffffffffffffffffffffff1602179055508173ffffffffffffffffffffffffffffffffffffffff168173ffffffffffffffffffffffffffffffffffffffff167f8be0079c531659141344cd1fd0a4f28419497f9722a3daafe3b4186f6b6457e060405160405180910390a35050565b5f80fd5b5f73ffffffffffffffffffffffffffffffffffffffff82169050919050565b5f620002c9826200029e565b9050919050565b620002db81620002bd565b8114620002e6575f80fd5b50565b5f81519050620002f981620002d0565b92915050565b5f819050919050565b6200031381620002ff565b81146200031e575f80fd5b50565b5f81519050620003318162000308565b92915050565b5f806040838503121562000350576200034f6200029a565b5b5f6200035f85828601620002e9565b9250506020620003728582860162000321565b9150509250929050565b6200038781620002bd565b82525050565b5f602082019050620003a25f8301846200037c565b92915050565b5f82825260208201905092915050565b7f496e76616c696420746f6b656e206164647265737300000000000000000000005f82015250565b5f620003ee601583620003a8565b9150620003fb82620003b8565b602082019050919050565b5f6020820190508181035f8301526200041f81620003e0565b9050919050565b7f496e76616c696420746f6b656e207072696365000000000000000000000000005f82015250565b5f6200045c601383620003a8565b9150620004698262000426565b602082019050919050565b5f6020820190508181035f8301526200048d816200044e565b9050919050565b608051611efa620004de5f395f81816106bf015281816107a5015281816108ca01528181610a0601528181610bfa01528181610d2901528181610e6c0152610f8d0152611efa5ff3fe60806040526004361061011e575f3560e01c80636a61e5fc1161009f578063988cc36211610063578063988cc36214610349578063c73d7c7b1461035f578063e35568cb14610387578063f2fde38b146103b1578063fc0c546a146103d95761011e565b80636a61e5fc1461028c5780636f9fb98a146102b4578063715018a6146102df5780637ff9b596146102f55780638da5cb5b1461031f5761011e565b80634af18f4f116100e65780634af18f4f146101a85780634b94f50e146101e45780634e5053671461020e57806353135ca01461023857806363a599a4146102625761011e565b806304c98b2b146101225780631ad2ad1a1461013857806324600fc31461014e578063315a095d146101645780633610724e1461018c575b5f80fd5b34801561012d575f80fd5b50610136610403565b005b348015610143575f80fd5b5061014c6104bd565b005b348015610159575f80fd5b50610162610517565b005b34801561016f575f80fd5b5061018a60048036038101906101859190611450565b61064f565b005b6101a660048036038101906101a19190611450565b610823565b005b3480156101b3575f80fd5b506101ce60048036038101906101c99190611450565b610aba565b6040516101db919061148a565b60405180910390f35b3480156101ef575f80fd5b506101f8610ae8565b604051610205919061148a565b60405180910390f35b348015610219575f80fd5b50610222610af1565b60405161022f919061148a565b60405180910390f35b348015610243575f80fd5b5061024c610af7565b60405161025991906114bd565b60405180910390f35b34801561026d575f80fd5b50610276610b09565b60405161028391906114bd565b60405180910390f35b348015610297575f80fd5b506102b260048036038101906102ad9190611450565b610b1c565b005b3480156102bf575f80fd5b506102c8610bf6565b6040516102d69291906114d6565b60405180910390f35b3480156102ea575f80fd5b506102f3610c99565b005b348015610300575f80fd5b50610309610cac565b604051610316919061148a565b60405180910390f35b34801561032a575f80fd5b50610333610cb2565b604051610340919061153c565b60405180910390f35b348015610354575f80fd5b5061035d610cda565b005b34801561036a575f80fd5b506103856004803603810190610380919061157f565b610e0d565b005b348015610392575f80fd5b5061039b610e69565b6040516103a8919061148a565b60405180910390f35b3480156103bc575f80fd5b506103d760048036038101906103d291906115d4565b610f07565b005b3480156103e4575f80fd5b506103ed610f8b565b6040516103fa919061165a565b60405180910390f35b61040b610faf565b5f6004541161044f576040517f08c379a0000000000000000000000000000000000000000000000000000000008152600401610446906116cd565b60405180910390fd5b600160035f6101000a81548160ff0219169083151502179055505f600360016101000a81548160ff0219169083151502179055507f1f1a6b0fcc71315f2c3aeddbd1f6d527595d21eea9b73160e78d6fa49b7897a660016040516104b391906114bd565b60405180910390a1565b6104c5610faf565b5f60035f6101000a81548160ff0219169083151502179055507f1f1a6b0fcc71315f2c3aeddbd1f6d527595d21eea9b73160e78d6fa49b7897a65f60405161050d91906114bd565b60405180910390a1565b61051f610faf565b5f4790505f8111610565576040517f08c379a000000000000000000000000000000000000000000000000000000000815260040161055c90611735565b60405180910390fd5b5f61056e610cb2565b73ffffffffffffffffffffffffffffffffffffffff168260405161059190611780565b5f6040518083038185875af1925050503d805f81146105cb576040519150601f19603f3d011682016040523d82523d5f602084013e6105d0565b606091505b5050905080610614576040517f08c379a000000000000000000000000000000000000000000000000000000000815260040161060b906117de565b60405180910390fd5b7f4a37b25aab49761ecf63117fe82b98d750917451133cf797507bc9fb5b96044a82604051610643919061148a565b60405180910390a15050565b610657610faf565b60035f9054906101000a900460ff16158061067e5750600360019054906101000a900460ff165b6106bd576040517f08c379a00000000000000000000000000000000000000000000000000000000081526004016106b490611846565b60405180910390fd5b7f000000000000000000000000000000000000000000000000000000000000000073ffffffffffffffffffffffffffffffffffffffff166370a08231306040518263ffffffff1660e01b8152600401610716919061153c565b602060405180830381865afa158015610731573d5f803e3d5ffd5b505050506040513d601f19601f820116820180604052508101906107559190611878565b811115610797576040517f08c379a000000000000000000000000000000000000000000000000000000000815260040161078e906118ed565b60405180910390fd5b6107e96107a2610cb2565b827f000000000000000000000000000000000000000000000000000000000000000073ffffffffffffffffffffffffffffffffffffffff166110369092919063ffffffff16565b7f9c6393f251205f9e03559951cab4c9ae71767b6174f77944a5b0c2fa51fbda9f81604051610818919061148a565b60405180910390a150565b61082b6110b5565b60035f9054906101000a900460ff16610879576040517f08c379a000000000000000000000000000000000000000000000000000000000815260040161087090611955565b60405180910390fd5b5f81116108bb576040517f08c379a00000000000000000000000000000000000000000000000000000000081526004016108b2906119bd565b60405180910390fd5b5f6108c582610aba565b90505f7f000000000000000000000000000000000000000000000000000000000000000073ffffffffffffffffffffffffffffffffffffffff166370a08231306040518263ffffffff1660e01b8152600401610921919061153c565b602060405180830381865afa15801561093c573d5f803e3d5ffd5b505050506040513d601f19601f820116820180604052508101906109609190611878565b90505f670de0b6b3a7640000846109779190611a08565b9050818111156109bc576040517f08c379a00000000000000000000000000000000000000000000000000000000081526004016109b390611a93565b60405180910390fd5b823410156109ff576040517f08c379a00000000000000000000000000000000000000000000000000000000081526004016109f690611afb565b60405180910390fd5b610a4a33827f000000000000000000000000000000000000000000000000000000000000000073ffffffffffffffffffffffffffffffffffffffff166110369092919063ffffffff16565b5f8334610a579190611b19565b90503373ffffffffffffffffffffffffffffffffffffffff167f0d1a0d5e3d583a0e92588799dd06e50fd78c07daf05f0cc06d7b848b1ca445f1838684604051610aa393929190611b4c565b60405180910390a250505050610ab7611102565b50565b5f80670de0b6b3a764000090508060025484610ad69190611a08565b610ae09190611bae565b915050919050565b5f600254905090565b60045481565b60035f9054906101000a900460ff1681565b600360019054906101000a900460ff1681565b610b24610faf565b5f8111610b66576040517f08c379a0000000000000000000000000000000000000000000000000000000008152600401610b5d90611c28565b60405180910390fd5b6b033b2e3c9fd0803ce8000000811115610bb5576040517f08c379a0000000000000000000000000000000000000000000000000000000008152600401610bac90611c90565b60405180910390fd5b806002819055507f6b361c807733cc94a3b7bda39c1c94dcc0511e91aa47b0f7f918068e9397689081604051610beb919061148a565b60405180910390a150565b5f807f000000000000000000000000000000000000000000000000000000000000000073ffffffffffffffffffffffffffffffffffffffff166370a08231306040518263ffffffff1660e01b8152600401610c51919061153c565b602060405180830381865afa158015610c6c573d5f803e3d5ffd5b505050506040513d601f19601f82011682018060405250810190610c909190611878565b91504790509091565b610ca1610faf565b610caa5f61110b565b565b60025481565b5f60015f9054906101000a900473ffffffffffffffffffffffffffffffffffffffff16905090565b610ce2610faf565b5f60045414610d26576040517f08c379a0000000000000000000000000000000000000000000000000000000008152600401610d1d90611cf8565b60405180910390fd5b5f7f000000000000000000000000000000000000000000000000000000000000000073ffffffffffffffffffffffffffffffffffffffff166370a08231306040518263ffffffff1660e01b8152600401610d80919061153c565b602060405180830381865afa158015610d9b573d5f803e3d5ffd5b505050506040513d601f19601f82011682018060405250810190610dbf9190611878565b90505f8111610e03576040517f08c379a0000000000000000000000000000000000000000000000000000000008152600401610dfa90611d60565b60405180910390fd5b8060048190555050565b610e15610faf565b80600360016101000a81548160ff0219169083151502179055507f5a31d3fca706d362eefe019ff26d6a216e2bb85e7f086256c1323fd6f026f4a381604051610e5e91906114bd565b60405180910390a150565b5f7f000000000000000000000000000000000000000000000000000000000000000073ffffffffffffffffffffffffffffffffffffffff166370a08231306040518263ffffffff1660e01b8152600401610ec3919061153c565b602060405180830381865afa158015610ede573d5f803e3d5ffd5b505050506040513d601f19601f82011682018060405250810190610f029190611878565b905090565b610f0f610faf565b5f73ffffffffffffffffffffffffffffffffffffffff168173ffffffffffffffffffffffffffffffffffffffff1603610f7f575f6040517f1e4fbdf7000000000000000000000000000000000000000000000000000000008152600401610f76919061153c565b60405180910390fd5b610f888161110b565b50565b7f000000000000000000000000000000000000000000000000000000000000000081565b610fb76111ce565b73ffffffffffffffffffffffffffffffffffffffff16610fd5610cb2565b73ffffffffffffffffffffffffffffffffffffffff161461103457610ff86111ce565b6040517f118cdaa700000000000000000000000000000000000000000000000000000000815260040161102b919061153c565b60405180910390fd5b565b6110b0838473ffffffffffffffffffffffffffffffffffffffff1663a9059cbb8585604051602401611069929190611d7e565b604051602081830303815290604052915060e01b6020820180517bffffffffffffffffffffffffffffffffffffffffffffffffffffffff83818316178352505050506111d5565b505050565b60025f54036110f9576040517f08c379a00000000000000000000000000000000000000000000000000000000081526004016110f090611def565b60405180910390fd5b60025f81905550565b60015f81905550565b5f60015f9054906101000a900473ffffffffffffffffffffffffffffffffffffffff1690508160015f6101000a81548173ffffffffffffffffffffffffffffffffffffffff021916908373ffffffffffffffffffffffffffffffffffffffff1602179055508173ffffffffffffffffffffffffffffffffffffffff168173ffffffffffffffffffffffffffffffffffffffff167f8be0079c531659141344cd1fd0a4f28419497f9722a3daafe3b4186f6b6457e060405160405180910390a35050565b5f33905090565b5f6111ff828473ffffffffffffffffffffffffffffffffffffffff1661126a90919063ffffffff16565b90505f8151141580156112235750808060200190518101906112219190611e21565b155b1561126557826040517f5274afe700000000000000000000000000000000000000000000000000000000815260040161125c919061153c565b60405180910390fd5b505050565b606061127783835f61127f565b905092915050565b6060814710156112c657306040517fcd7860590000000000000000000000000000000000000000000000000000000081526004016112bd919061153c565b60405180910390fd5b5f808573ffffffffffffffffffffffffffffffffffffffff1684866040516112ee9190611eae565b5f6040518083038185875af1925050503d805f8114611328576040519150601f19603f3d011682016040523d82523d5f602084013e61132d565b606091505b509150915061133d868383611348565b925050509392505050565b60608261135d57611358826113d5565b6113cd565b5f825114801561138357505f8473ffffffffffffffffffffffffffffffffffffffff163b145b156113c557836040517f9996b3150000000000000000000000000000000000000000000000000000000081526004016113bc919061153c565b60405180910390fd5b8190506113ce565b5b9392505050565b5f815111156113e75780518082602001fd5b6040517f1425ea4200000000000000000000000000000000000000000000000000000000815260040160405180910390fd5b5f80fd5b5f819050919050565b61142f8161141d565b8114611439575f80fd5b50565b5f8135905061144a81611426565b92915050565b5f6020828403121561146557611464611419565b5b5f6114728482850161143c565b91505092915050565b6114848161141d565b82525050565b5f60208201905061149d5f83018461147b565b92915050565b5f8115159050919050565b6114b7816114a3565b82525050565b5f6020820190506114d05f8301846114ae565b92915050565b5f6040820190506114e95f83018561147b565b6114f6602083018461147b565b9392505050565b5f73ffffffffffffffffffffffffffffffffffffffff82169050919050565b5f611526826114fd565b9050919050565b6115368161151c565b82525050565b5f60208201905061154f5f83018461152d565b92915050565b61155e816114a3565b8114611568575f80fd5b50565b5f8135905061157981611555565b92915050565b5f6020828403121561159457611593611419565b5b5f6115a18482850161156b565b91505092915050565b6115b38161151c565b81146115bd575f80fd5b50565b5f813590506115ce816115aa565b92915050565b5f602082840312156115e9576115e8611419565b5b5f6115f6848285016115c0565b91505092915050565b5f819050919050565b5f61162261161d611618846114fd565b6115ff565b6114fd565b9050919050565b5f61163382611608565b9050919050565b5f61164482611629565b9050919050565b6116548161163a565b82525050565b5f60208201905061166d5f83018461164b565b92915050565b5f82825260208201905092915050565b7f496e697469616c20746f6b656e20616d6f756e74206e6f7420736574000000005f82015250565b5f6116b7601c83611673565b91506116c282611683565b602082019050919050565b5f6020820190508181035f8301526116e4816116ab565b9050919050565b7f4e6f2066756e647320746f2077697468647261770000000000000000000000005f82015250565b5f61171f601483611673565b915061172a826116eb565b602082019050919050565b5f6020820190508181035f83015261174c81611713565b9050919050565b5f81905092915050565b50565b5f61176b5f83611753565b91506117768261175d565b5f82019050919050565b5f61178a82611760565b9150819050919050565b7f4661696c656420746f2073656e642066756e64730000000000000000000000005f82015250565b5f6117c8601483611673565b91506117d382611794565b602082019050919050565b5f6020820190508181035f8301526117f5816117bc565b9050919050565b7f50726573616c65206973207374696c6c206163746976650000000000000000005f82015250565b5f611830601783611673565b915061183b826117fc565b602082019050919050565b5f6020820190508181035f83015261185d81611824565b9050919050565b5f8151905061187281611426565b92915050565b5f6020828403121561188d5761188c611419565b5b5f61189a84828501611864565b91505092915050565b7f496e73756666696369656e7420746f6b656e2062616c616e63650000000000005f82015250565b5f6118d7601a83611673565b91506118e2826118a3565b602082019050919050565b5f6020820190508181035f830152611904816118cb565b9050919050565b7f50726573616c65206e6f742061637469766500000000000000000000000000005f82015250565b5f61193f601283611673565b915061194a8261190b565b602082019050919050565b5f6020820190508181035f83015261196c81611933565b9050919050565b7f546f6b656e20616d6f756e74206d75737420626520706f7369746976650000005f82015250565b5f6119a7601d83611673565b91506119b282611973565b602082019050919050565b5f6020820190508181035f8301526119d48161199b565b9050919050565b7f4e487b71000000000000000000000000000000000000000000000000000000005f52601160045260245ffd5b5f611a128261141d565b9150611a1d8361141d565b9250828202611a2b8161141d565b91508282048414831517611a4257611a416119db565b5b5092915050565b7f496e73756666696369656e7420746f6b656e7320617661696c61626c650000005f82015250565b5f611a7d601d83611673565b9150611a8882611a49565b602082019050919050565b5f6020820190508181035f830152611aaa81611a71565b9050919050565b7f496e73756666696369656e74207061796d656e740000000000000000000000005f82015250565b5f611ae5601483611673565b9150611af082611ab1565b602082019050919050565b5f6020820190508181035f830152611b1281611ad9565b9050919050565b5f611b238261141d565b9150611b2e8361141d565b9250828203905081811115611b4657611b456119db565b5b92915050565b5f606082019050611b5f5f83018661147b565b611b6c602083018561147b565b611b79604083018461147b565b949350505050565b7f4e487b71000000000000000000000000000000000000000000000000000000005f52601260045260245ffd5b5f611bb88261141d565b9150611bc38361141d565b925082611bd357611bd2611b81565b5b828204905092915050565b7f496e76616c696420746f6b656e207072696365000000000000000000000000005f82015250565b5f611c12601383611673565b9150611c1d82611bde565b602082019050919050565b5f6020820190508181035f830152611c3f81611c06565b9050919050565b7f507269636520746f6f20686967680000000000000000000000000000000000005f82015250565b5f611c7a600e83611673565b9150611c8582611c46565b602082019050919050565b5f6020820190508181035f830152611ca781611c6e565b9050919050565b7f496e697469616c20616d6f756e7420616c7265616479207365740000000000005f82015250565b5f611ce2601a83611673565b9150611ced82611cae565b602082019050919050565b5f6020820190508181035f830152611d0f81611cd6565b9050919050565b7f4e6f20746f6b656e7320696e20636f6e747261637400000000000000000000005f82015250565b5f611d4a601583611673565b9150611d5582611d16565b602082019050919050565b5f6020820190508181035f830152611d7781611d3e565b9050919050565b5f604082019050611d915f83018561152d565b611d9e602083018461147b565b9392505050565b7f5265656e7472616e637947756172643a207265656e7472616e742063616c6c005f82015250565b5f611dd9601f83611673565b9150611de482611da5565b602082019050919050565b5f6020820190508181035f830152611e0681611dcd565b9050919050565b5f81519050611e1b81611555565b92915050565b5f60208284031215611e3657611e35611419565b5b5f611e4384828501611e0d565b91505092915050565b5f81519050919050565b5f5b83811015611e73578082015181840152602081019050611e58565b5f8484015250505050565b5f611e8882611e4c565b611e928185611753565b9350611ea2818560208601611e56565b80840191505092915050565b5f611eb98284611e7e565b91508190509291505056fea2646970667358221220a4cf791a6b5bc509241d8b5914eb7eb15d7c242d70e5fdc15c2ede84986d8e7464736f6c63430008140033",
  "linkReferences": {},
  "deployedLinkReferences": {}
}