{
  "_format": "hh-sol-artifact-1",
  "contractName": "DynamicTokenSale",
  "sourceName": "contracts/TokenSaleContract.sol",
  "abi": [
    {
      "inputs": [
        {
          "internalType": "address",
          "name": "_token",
          "type": "address"
        },
        {
          "internalType": "uint256",
          "name": "_tokenPrice",
          "type": "uint256"
        }
      ],
      "stateMutability": "nonpayable",
      "type": "constructor"
    },
    {
      "inputs": [
        {
          "internalType": "address",
          "name": "target",
          "type": "address"
        }
      ],
      "name": "AddressEmptyCode",
      "type": "error"
    },
    {
      "inputs": [
        {
          "internalType": "address",
          "name": "account",
          "type": "address"
        }
      ],
      "name": "AddressInsufficientBalance",
      "type": "error"
    },
    {
      "inputs": [
        {
          "internalType": "uint256",
          "name": "_tokenAmount",
          "type": "uint256"
        }
      ],
      "name": "buyTokens",
      "outputs": [],
      "stateMutability": "payable",
      "type": "function"
    },
    {
      "inputs": [],
      "name": "FailedInnerCall",
      "type": "error"
    },
    {
      "inputs": [
        {
          "internalType": "address",
          "name": "owner",
          "type": "address"
        }
      ],
      "name": "OwnableInvalidOwner",
      "type": "error"
    },
    {
      "inputs": [
        {
          "internalType": "address",
          "name": "account",
          "type": "address"
        }
      ],
      "name": "OwnableUnauthorizedAccount",
      "type": "error"
    },
    {
      "inputs": [
        {
          "internalType": "address",
          "name": "token",
          "type": "address"
        }
      ],
      "name": "SafeERC20FailedOperation",
      "type": "error"
    },
    {
      "anonymous": false,
      "inputs": [
        {
          "indexed": false,
          "internalType": "bool",
          "name": "status",
          "type": "bool"
        }
      ],
      "name": "EmergencyStopActivated",
      "type": "event"
    },
    {
      "anonymous": false,
      "inputs": [
        {
          "indexed": false,
          "internalType": "uint256",
          "name": "amount",
          "type": "uint256"
        }
      ],
      "name": "FundsWithdrawn",
      "type": "event"
    },
    {
      "anonymous": false,
      "inputs": [
        {
          "indexed": true,
          "internalType": "address",
          "name": "previousOwner",
          "type": "address"
        },
        {
          "indexed": true,
          "internalType": "address",
          "name": "newOwner",
          "type": "address"
        }
      ],
      "name": "OwnershipTransferred",
      "type": "event"
    },
    {
      "anonymous": false,
      "inputs": [
        {
          "indexed": false,
          "internalType": "bool",
          "name": "isActive",
          "type": "bool"
        }
      ],
      "name": "PresaleStatusChanged",
      "type": "event"
    },
    {
      "anonymous": false,
      "inputs": [
        {
          "indexed": true,
          "internalType": "address",
          "name": "buyer",
          "type": "address"
        },
        {
          "indexed": false,
          "internalType": "string",
          "name": "reason",
          "type": "string"
        },
        {
          "indexed": false,
          "internalType": "uint256",
          "name": "attemptedAmount",
          "type": "uint256"
        },
        {
          "indexed": false,
          "internalType": "uint256",
          "name": "contractTokenBalance",
          "type": "uint256"
        },
        {
          "indexed": false,
          "internalType": "uint256",
          "name": "msgValue",
          "type": "uint256"
        }
      ],
      "name": "PurchaseFailure",
      "type": "event"
    },
    {
      "inputs": [],
      "name": "renounceOwnership",
      "outputs": [],
      "stateMutability": "nonpayable",
      "type": "function"
    },
    {
      "inputs": [
        {
          "internalType": "bool",
          "name": "_status",
          "type": "bool"
        }
      ],
      "name": "setEmergencyStop",
      "outputs": [],
      "stateMutability": "nonpayable",
      "type": "function"
    },
    {
      "inputs": [],
      "name": "setInitialTokenAmount",
      "outputs": [],
      "stateMutability": "nonpayable",
      "type": "function"
    },
    {
      "inputs": [
        {
          "internalType": "uint256",
          "name": "_newPrice",
          "type": "uint256"
        }
      ],
      "name": "setTokenPrice",
      "outputs": [],
      "stateMutability": "nonpayable",
      "type": "function"
    },
    {
      "inputs": [],
      "name": "startPresale",
      "outputs": [],
      "stateMutability": "nonpayable",
      "type": "function"
    },
    {
      "inputs": [],
      "name": "stopPresale",
      "outputs": [],
      "stateMutability": "nonpayable",
      "type": "function"
    },
    {
      "anonymous": false,
      "inputs": [
        {
          "indexed": false,
          "internalType": "uint256",
          "name": "newPrice",
          "type": "uint256"
        }
      ],
      "name": "TokenPriceUpdated",
      "type": "event"
    },
    {
      "anonymous": false,
      "inputs": [
        {
          "indexed": true,
          "internalType": "address",
          "name": "buyer",
          "type": "address"
        },
        {
          "indexed": false,
          "internalType": "uint256",
          "name": "tokenAmount",
          "type": "uint256"
        },
        {
          "indexed": false,
          "internalType": "uint256",
          "name": "cost",
          "type": "uint256"
        },
        {
          "indexed": false,
          "internalType": "uint256",
          "name": "excess",
          "type": "uint256"
        }
      ],
      "name": "TokensPurchased",
      "type": "event"
    },
    {
      "anonymous": false,
      "inputs": [
        {
          "indexed": false,
          "internalType": "uint256",
          "name": "amount",
          "type": "uint256"
        }
      ],
      "name": "TokensWithdrawn",
      "type": "event"
    },
    {
      "inputs": [
        {
          "internalType": "address",
          "name": "newOwner",
          "type": "address"
        }
      ],
      "name": "transferOwnership",
      "outputs": [],
      "stateMutability": "nonpayable",
      "type": "function"
    },
    {
      "inputs": [],
      "name": "withdrawFunds",
      "outputs": [],
      "stateMutability": "nonpayable",
      "type": "function"
    },
    {
      "inputs": [
        {
          "internalType": "uint256",
          "name": "_amount",
          "type": "uint256"
        }
      ],
      "name": "withdrawTokens",
      "outputs": [],
      "stateMutability": "nonpayable",
      "type": "function"
    },
    {
      "inputs": [
        {
          "internalType": "uint256",
          "name": "_tokenAmount",
          "type": "uint256"
        }
      ],
      "name": "calculateCost",
      "outputs": [
        {
          "internalType": "uint256",
          "name": "",
          "type": "uint256"
        }
      ],
      "stateMutability": "view",
      "type": "function"
    },
    {
      "inputs": [],
      "name": "emergencyStop",
      "outputs": [
        {
          "internalType": "bool",
          "name": "",
          "type": "bool"
        }
      ],
      "stateMutability": "view",
      "type": "function"
    },
    {
      "inputs": [],
      "name": "getAvailableTokens",
      "outputs": [
        {
          "internalType": "uint256",
          "name": "",
          "type": "uint256"
        }
      ],
      "stateMutability": "view",
      "type": "function"
    },
    {
      "inputs": [],
      "name": "getContractBalance",
      "outputs": [
        {
          "internalType": "uint256",
          "name": "tokenBalance",
          "type": "uint256"
        },
        {
          "internalType": "uint256",
          "name": "nativeBalance",
          "type": "uint256"
        }
      ],
      "stateMutability": "view",
      "type": "function"
    },
    {
      "inputs": [],
      "name": "getTokenPrice",
      "outputs": [
        {
          "internalType": "uint256",
          "name": "",
          "type": "uint256"
        }
      ],
      "stateMutability": "view",
      "type": "function"
    },
    {
      "inputs": [],
      "name": "initialTokenAmount",
      "outputs": [
        {
          "internalType": "uint256",
          "name": "",
          "type": "uint256"
        }
      ],
      "stateMutability": "view",
      "type": "function"
    },
    {
      "inputs": [],
      "name": "owner",
      "outputs": [
        {
          "internalType": "address",
          "name": "",
          "type": "address"
        }
      ],
      "stateMutability": "view",
      "type": "function"
    },
    {
      "inputs": [],
      "name": "presaleActive",
      "outputs": [
        {
          "internalType": "bool",
          "name": "",
          "type": "bool"
        }
      ],
      "stateMutability": "view",
      "type": "function"
    },
    {
      "inputs": [],
      "name": "token",
      "outputs": [
        {
          "internalType": "contract IERC20",
          "name": "",
          "type": "address"
        }
      ],
      "stateMutability": "view",
      "type": "function"
    },
    {
      "inputs": [],
      "name": "tokenPrice",
      "outputs": [
        {
          "internalType": "uint256",
          "name": "",
          "type": "uint256"
        }
      ],
      "stateMutability": "view",
      "type": "function"
    }
  ],
  "bytecode": "60a060405234801562000010575f80fd5b50604051620023c0380380620023c0833981810160405281019062000036919062000337565b3360015f819055505f73ffffffffffffffffffffffffffffffffffffffff168173ffffffffffffffffffffffffffffffffffffffff1603620000b1575f6040517f1e4fbdf7000000000000000000000000000000000000000000000000000000008152600401620000a891906200038d565b60405180910390fd5b620000c281620001d760201b60201c565b505f73ffffffffffffffffffffffffffffffffffffffff168273ffffffffffffffffffffffffffffffffffffffff160362000134576040517f08c379a00000000000000000000000000000000000000000000000000000000081526004016200012b9062000406565b60405180910390fd5b5f811162000179576040517f08c379a0000000000000000000000000000000000000000000000000000000008152600401620001709062000474565b60405180910390fd5b8173ffffffffffffffffffffffffffffffffffffffff1660808173ffffffffffffffffffffffffffffffffffffffff1681525050806002819055506001600360016101000a81548160ff021916908315150217905550505062000494565b5f60015f9054906101000a900473ffffffffffffffffffffffffffffffffffffffff1690508160015f6101000a81548173ffffffffffffffffffffffffffffffffffffffff021916908373ffffffffffffffffffffffffffffffffffffffff1602179055508173ffffffffffffffffffffffffffffffffffffffff168173ffffffffffffffffffffffffffffffffffffffff167f8be0079c531659141344cd1fd0a4f28419497f9722a3daafe3b4186f6b6457e060405160405180910390a35050565b5f80fd5b5f73ffffffffffffffffffffffffffffffffffffffff82169050919050565b5f620002c9826200029e565b9050919050565b620002db81620002bd565b8114620002e6575f80fd5b50565b5f81519050620002f981620002d0565b92915050565b5f819050919050565b6200031381620002ff565b81146200031e575f80fd5b50565b5f81519050620003318162000308565b92915050565b5f806040838503121562000350576200034f6200029a565b5b5f6200035f85828601620002e9565b9250506020620003728582860162000321565b9150509250929050565b6200038781620002bd565b82525050565b5f602082019050620003a25f8301846200037c565b92915050565b5f82825260208201905092915050565b7f496e76616c696420746f6b656e206164647265737300000000000000000000005f82015250565b5f620003ee601583620003a8565b9150620003fb82620003b8565b602082019050919050565b5f6020820190508181035f8301526200041f81620003e0565b9050919050565b7f496e76616c696420746f6b656e207072696365000000000000000000000000005f82015250565b5f6200045c601383620003a8565b9150620004698262000426565b602082019050919050565b5f6020820190508181035f8301526200048d816200044e565b9050919050565b608051611ee2620004de5f395f81816106bf015281816107a5015281816108ca015281816109ef01528181610be201528181610d1101528181610e540152610f750152611ee25ff3fe60806040526004361061011e575f3560e01c80636a61e5fc1161009f578063988cc36211610063578063988cc36214610349578063c73d7c7b1461035f578063e35568cb14610387578063f2fde38b146103b1578063fc0c546a146103d95761011e565b80636a61e5fc1461028c5780636f9fb98a146102b4578063715018a6146102df5780637ff9b596146102f55780638da5cb5b1461031f5761011e565b80634af18f4f116100e65780634af18f4f146101a85780634b94f50e146101e45780634e5053671461020e57806353135ca01461023857806363a599a4146102625761011e565b806304c98b2b146101225780631ad2ad1a1461013857806324600fc31461014e578063315a095d146101645780633610724e1461018c575b5f80fd5b34801561012d575f80fd5b50610136610403565b005b348015610143575f80fd5b5061014c6104bd565b005b348015610159575f80fd5b50610162610517565b005b34801561016f575f80fd5b5061018a60048036038101906101859190611438565b61064f565b005b6101a660048036038101906101a19190611438565b610823565b005b3480156101b3575f80fd5b506101ce60048036038101906101c99190611438565b610aa2565b6040516101db9190611472565b60405180910390f35b3480156101ef575f80fd5b506101f8610ad0565b6040516102059190611472565b60405180910390f35b348015610219575f80fd5b50610222610ad9565b60405161022f9190611472565b60405180910390f35b348015610243575f80fd5b5061024c610adf565b60405161025991906114a5565b60405180910390f35b34801561026d575f80fd5b50610276610af1565b60405161028391906114a5565b60405180910390f35b348015610297575f80fd5b506102b260048036038101906102ad9190611438565b610b04565b005b3480156102bf575f80fd5b506102c8610bde565b6040516102d69291906114be565b60405180910390f35b3480156102ea575f80fd5b506102f3610c81565b005b348015610300575f80fd5b50610309610c94565b6040516103169190611472565b60405180910390f35b34801561032a575f80fd5b50610333610c9a565b6040516103409190611524565b60405180910390f35b348015610354575f80fd5b5061035d610cc2565b005b34801561036a575f80fd5b5061038560048036038101906103809190611567565b610df5565b005b348015610392575f80fd5b5061039b610e51565b6040516103a89190611472565b60405180910390f35b3480156103bc575f80fd5b506103d760048036038101906103d291906115bc565b610eef565b005b3480156103e4575f80fd5b506103ed610f73565b6040516103fa9190611642565b60405180910390f35b61040b610f97565b5f6004541161044f576040517f08c379a0000000000000000000000000000000000000000000000000000000008152600401610446906116b5565b60405180910390fd5b600160035f6101000a81548160ff0219169083151502179055505f600360016101000a81548160ff0219169083151502179055507f1f1a6b0fcc71315f2c3aeddbd1f6d527595d21eea9b73160e78d6fa49b7897a660016040516104b391906114a5565b60405180910390a1565b6104c5610f97565b5f60035f6101000a81548160ff0219169083151502179055507f1f1a6b0fcc71315f2c3aeddbd1f6d527595d21eea9b73160e78d6fa49b7897a65f60405161050d91906114a5565b60405180910390a1565b61051f610f97565b5f4790505f8111610565576040517f08c379a000000000000000000000000000000000000000000000000000000000815260040161055c9061171d565b60405180910390fd5b5f61056e610c9a565b73ffffffffffffffffffffffffffffffffffffffff168260405161059190611768565b5f6040518083038185875af1925050503d805f81146105cb576040519150601f19603f3d011682016040523d82523d5f602084013e6105d0565b606091505b5050905080610614576040517f08c379a000000000000000000000000000000000000000000000000000000000815260040161060b906117c6565b60405180910390fd5b7f4a37b25aab49761ecf63117fe82b98d750917451133cf797507bc9fb5b96044a826040516106439190611472565b60405180910390a15050565b610657610f97565b60035f9054906101000a900460ff16158061067e5750600360019054906101000a900460ff165b6106bd576040517f08c379a00000000000000000000000000000000000000000000000000000000081526004016106b49061182e565b60405180910390fd5b7f000000000000000000000000000000000000000000000000000000000000000073ffffffffffffffffffffffffffffffffffffffff166370a08231306040518263ffffffff1660e01b81526004016107169190611524565b602060405180830381865afa158015610731573d5f803e3d5ffd5b505050506040513d601f19601f820116820180604052508101906107559190611860565b811115610797576040517f08c379a000000000000000000000000000000000000000000000000000000000815260040161078e906118d5565b60405180910390fd5b6107e96107a2610c9a565b827f000000000000000000000000000000000000000000000000000000000000000073ffffffffffffffffffffffffffffffffffffffff1661101e9092919063ffffffff16565b7f9c6393f251205f9e03559951cab4c9ae71767b6174f77944a5b0c2fa51fbda9f816040516108189190611472565b60405180910390a150565b61082b61109d565b60035f9054906101000a900460ff16610879576040517f08c379a00000000000000000000000000000000000000000000000000000000081526004016108709061193d565b60405180910390fd5b5f81116108bb576040517f08c379a00000000000000000000000000000000000000000000000000000000081526004016108b2906119a5565b60405180910390fd5b5f6108c582610aa2565b90505f7f000000000000000000000000000000000000000000000000000000000000000073ffffffffffffffffffffffffffffffffffffffff166370a08231306040518263ffffffff1660e01b81526004016109219190611524565b602060405180830381865afa15801561093c573d5f803e3d5ffd5b505050506040513d601f19601f820116820180604052508101906109609190611860565b9050808311156109a5576040517f08c379a000000000000000000000000000000000000000000000000000000000815260040161099c90611a0d565b60405180910390fd5b813410156109e8576040517f08c379a00000000000000000000000000000000000000000000000000000000081526004016109df90611a75565b60405180910390fd5b610a3333847f000000000000000000000000000000000000000000000000000000000000000073ffffffffffffffffffffffffffffffffffffffff1661101e9092919063ffffffff16565b5f8234610a409190611ac0565b90503373ffffffffffffffffffffffffffffffffffffffff167f0d1a0d5e3d583a0e92588799dd06e50fd78c07daf05f0cc06d7b848b1ca445f1858584604051610a8c93929190611af3565b60405180910390a2505050610a9f6110ea565b50565b5f80670de0b6b3a764000090508060025484610abe9190611b28565b610ac89190611b96565b915050919050565b5f600254905090565b60045481565b60035f9054906101000a900460ff1681565b600360019054906101000a900460ff1681565b610b0c610f97565b5f8111610b4e576040517f08c379a0000000000000000000000000000000000000000000000000000000008152600401610b4590611c10565b60405180910390fd5b6b033b2e3c9fd0803ce8000000811115610b9d576040517f08c379a0000000000000000000000000000000000000000000000000000000008152600401610b9490611c78565b60405180910390fd5b806002819055507f6b361c807733cc94a3b7bda39c1c94dcc0511e91aa47b0f7f918068e9397689081604051610bd39190611472565b60405180910390a150565b5f807f000000000000000000000000000000000000000000000000000000000000000073ffffffffffffffffffffffffffffffffffffffff166370a08231306040518263ffffffff1660e01b8152600401610c399190611524565b602060405180830381865afa158015610c54573d5f803e3d5ffd5b505050506040513d601f19601f82011682018060405250810190610c789190611860565b91504790509091565b610c89610f97565b610c925f6110f3565b565b60025481565b5f60015f9054906101000a900473ffffffffffffffffffffffffffffffffffffffff16905090565b610cca610f97565b5f60045414610d0e576040517f08c379a0000000000000000000000000000000000000000000000000000000008152600401610d0590611ce0565b60405180910390fd5b5f7f000000000000000000000000000000000000000000000000000000000000000073ffffffffffffffffffffffffffffffffffffffff166370a08231306040518263ffffffff1660e01b8152600401610d689190611524565b602060405180830381865afa158015610d83573d5f803e3d5ffd5b505050506040513d601f19601f82011682018060405250810190610da79190611860565b90505f8111610deb576040517f08c379a0000000000000000000000000000000000000000000000000000000008152600401610de290611d48565b60405180910390fd5b8060048190555050565b610dfd610f97565b80600360016101000a81548160ff0219169083151502179055507f5a31d3fca706d362eefe019ff26d6a216e2bb85e7f086256c1323fd6f026f4a381604051610e4691906114a5565b60405180910390a150565b5f7f000000000000000000000000000000000000000000000000000000000000000073ffffffffffffffffffffffffffffffffffffffff166370a08231306040518263ffffffff1660e01b8152600401610eab9190611524565b602060405180830381865afa158015610ec6573d5f803e3d5ffd5b505050506040513d601f19601f82011682018060405250810190610eea9190611860565b905090565b610ef7610f97565b5f73ffffffffffffffffffffffffffffffffffffffff168173ffffffffffffffffffffffffffffffffffffffff1603610f67575f6040517f1e4fbdf7000000000000000000000000000000000000000000000000000000008152600401610f5e9190611524565b60405180910390fd5b610f70816110f3565b50565b7f000000000000000000000000000000000000000000000000000000000000000081565b610f9f6111b6565b73ffffffffffffffffffffffffffffffffffffffff16610fbd610c9a565b73ffffffffffffffffffffffffffffffffffffffff161461101c57610fe06111b6565b6040517f118cdaa70000000000000000000000000000000000000000000000000000000081526004016110139190611524565b60405180910390fd5b565b611098838473ffffffffffffffffffffffffffffffffffffffff1663a9059cbb8585604051602401611051929190611d66565b604051602081830303815290604052915060e01b6020820180517bffffffffffffffffffffffffffffffffffffffffffffffffffffffff83818316178352505050506111bd565b505050565b60025f54036110e1576040517f08c379a00000000000000000000000000000000000000000000000000000000081526004016110d890611dd7565b60405180910390fd5b60025f81905550565b60015f81905550565b5f60015f9054906101000a900473ffffffffffffffffffffffffffffffffffffffff1690508160015f6101000a81548173ffffffffffffffffffffffffffffffffffffffff021916908373ffffffffffffffffffffffffffffffffffffffff1602179055508173ffffffffffffffffffffffffffffffffffffffff168173ffffffffffffffffffffffffffffffffffffffff167f8be0079c531659141344cd1fd0a4f28419497f9722a3daafe3b4186f6b6457e060405160405180910390a35050565b5f33905090565b5f6111e7828473ffffffffffffffffffffffffffffffffffffffff1661125290919063ffffffff16565b90505f81511415801561120b5750808060200190518101906112099190611e09565b155b1561124d57826040517f5274afe70000000000000000000000000000000000000000000000000000000081526004016112449190611524565b60405180910390fd5b505050565b606061125f83835f611267565b905092915050565b6060814710156112ae57306040517fcd7860590000000000000000000000000000000000000000000000000000000081526004016112a59190611524565b60405180910390fd5b5f808573ffffffffffffffffffffffffffffffffffffffff1684866040516112d69190611e96565b5f6040518083038185875af1925050503d805f8114611310576040519150601f19603f3d011682016040523d82523d5f602084013e611315565b606091505b5091509150611325868383611330565b925050509392505050565b60608261134557611340826113bd565b6113b5565b5f825114801561136b57505f8473ffffffffffffffffffffffffffffffffffffffff163b145b156113ad57836040517f9996b3150000000000000000000000000000000000000000000000000000000081526004016113a49190611524565b60405180910390fd5b8190506113b6565b5b9392505050565b5f815111156113cf5780518082602001fd5b6040517f1425ea4200000000000000000000000000000000000000000000000000000000815260040160405180910390fd5b5f80fd5b5f819050919050565b61141781611405565b8114611421575f80fd5b50565b5f813590506114328161140e565b92915050565b5f6020828403121561144d5761144c611401565b5b5f61145a84828501611424565b91505092915050565b61146c81611405565b82525050565b5f6020820190506114855f830184611463565b92915050565b5f8115159050919050565b61149f8161148b565b82525050565b5f6020820190506114b85f830184611496565b92915050565b5f6040820190506114d15f830185611463565b6114de6020830184611463565b9392505050565b5f73ffffffffffffffffffffffffffffffffffffffff82169050919050565b5f61150e826114e5565b9050919050565b61151e81611504565b82525050565b5f6020820190506115375f830184611515565b92915050565b6115468161148b565b8114611550575f80fd5b50565b5f813590506115618161153d565b92915050565b5f6020828403121561157c5761157b611401565b5b5f61158984828501611553565b91505092915050565b61159b81611504565b81146115a5575f80fd5b50565b5f813590506115b681611592565b92915050565b5f602082840312156115d1576115d0611401565b5b5f6115de848285016115a8565b91505092915050565b5f819050919050565b5f61160a611605611600846114e5565b6115e7565b6114e5565b9050919050565b5f61161b826115f0565b9050919050565b5f61162c82611611565b9050919050565b61163c81611622565b82525050565b5f6020820190506116555f830184611633565b92915050565b5f82825260208201905092915050565b7f496e697469616c20746f6b656e20616d6f756e74206e6f7420736574000000005f82015250565b5f61169f601c8361165b565b91506116aa8261166b565b602082019050919050565b5f6020820190508181035f8301526116cc81611693565b9050919050565b7f4e6f2066756e647320746f2077697468647261770000000000000000000000005f82015250565b5f61170760148361165b565b9150611712826116d3565b602082019050919050565b5f6020820190508181035f830152611734816116fb565b9050919050565b5f81905092915050565b50565b5f6117535f8361173b565b915061175e82611745565b5f82019050919050565b5f61177282611748565b9150819050919050565b7f4661696c656420746f2073656e642066756e64730000000000000000000000005f82015250565b5f6117b060148361165b565b91506117bb8261177c565b602082019050919050565b5f6020820190508181035f8301526117dd816117a4565b9050919050565b7f50726573616c65206973207374696c6c206163746976650000000000000000005f82015250565b5f61181860178361165b565b9150611823826117e4565b602082019050919050565b5f6020820190508181035f8301526118458161180c565b9050919050565b5f8151905061185a8161140e565b92915050565b5f6020828403121561187557611874611401565b5b5f6118828482850161184c565b91505092915050565b7f496e73756666696369656e7420746f6b656e2062616c616e63650000000000005f82015250565b5f6118bf601a8361165b565b91506118ca8261188b565b602082019050919050565b5f6020820190508181035f8301526118ec816118b3565b9050919050565b7f50726573616c65206e6f742061637469766500000000000000000000000000005f82015250565b5f61192760128361165b565b9150611932826118f3565b602082019050919050565b5f6020820190508181035f8301526119548161191b565b9050919050565b7f546f6b656e20616d6f756e74206d75737420626520706f7369746976650000005f82015250565b5f61198f601d8361165b565b915061199a8261195b565b602082019050919050565b5f6020820190508181035f8301526119bc81611983565b9050919050565b7f496e73756666696369656e7420746f6b656e7320617661696c61626c650000005f82015250565b5f6119f7601d8361165b565b9150611a02826119c3565b602082019050919050565b5f6020820190508181035f830152611a24816119eb565b9050919050565b7f496e73756666696369656e74207061796d656e740000000000000000000000005f82015250565b5f611a5f60148361165b565b9150611a6a82611a2b565b602082019050919050565b5f6020820190508181035f830152611a8c81611a53565b9050919050565b7f4e487b71000000000000000000000000000000000000000000000000000000005f52601160045260245ffd5b5f611aca82611405565b9150611ad583611405565b9250828203905081811115611aed57611aec611a93565b5b92915050565b5f606082019050611b065f830186611463565b611b136020830185611463565b611b206040830184611463565b949350505050565b5f611b3282611405565b9150611b3d83611405565b9250828202611b4b81611405565b91508282048414831517611b6257611b61611a93565b5b5092915050565b7f4e487b71000000000000000000000000000000000000000000000000000000005f52601260045260245ffd5b5f611ba082611405565b9150611bab83611405565b925082611bbb57611bba611b69565b5b828204905092915050565b7f496e76616c696420746f6b656e207072696365000000000000000000000000005f82015250565b5f611bfa60138361165b565b9150611c0582611bc6565b602082019050919050565b5f6020820190508181035f830152611c2781611bee565b9050919050565b7f507269636520746f6f20686967680000000000000000000000000000000000005f82015250565b5f611c62600e8361165b565b9150611c6d82611c2e565b602082019050919050565b5f6020820190508181035f830152611c8f81611c56565b9050919050565b7f496e697469616c20616d6f756e7420616c7265616479207365740000000000005f82015250565b5f611cca601a8361165b565b9150611cd582611c96565b602082019050919050565b5f6020820190508181035f830152611cf781611cbe565b9050919050565b7f4e6f20746f6b656e7320696e20636f6e747261637400000000000000000000005f82015250565b5f611d3260158361165b565b9150611d3d82611cfe565b602082019050919050565b5f6020820190508181035f830152611d5f81611d26565b9050919050565b5f604082019050611d795f830185611515565b611d866020830184611463565b9392505050565b7f5265656e7472616e637947756172643a207265656e7472616e742063616c6c005f82015250565b5f611dc1601f8361165b565b9150611dcc82611d8d565b602082019050919050565b5f6020820190508181035f830152611dee81611db5565b9050919050565b5f81519050611e038161153d565b92915050565b5f60208284031215611e1e57611e1d611401565b5b5f611e2b84828501611df5565b91505092915050565b5f81519050919050565b5f5b83811015611e5b578082015181840152602081019050611e40565b5f8484015250505050565b5f611e7082611e34565b611e7a818561173b565b9350611e8a818560208601611e3e565b80840191505092915050565b5f611ea18284611e66565b91508190509291505056fea2646970667358221220863324c01f3e6f276bd257c91d55a0c38693c6fecb38e711383b80c6bedc512964736f6c63430008140033",
  "linkReferences": {},
  "deployedLinkReferences": {}
}