{
  "_format": "hh-sol-artifact-1",
  "contractName": "TokenSaleContract",
  "sourceName": "contracts/TokenSaleContract.sol",
  "abi": [
    {
      "inputs": [
        {
          "internalType": "address",
          "name": "_token",
          "type": "address"
        },
        {
          "internalType": "uint256",
          "name": "_presaleDuration",
          "type": "uint256"
        },
        {
          "internalType": "uint256",
          "name": "_vestingDuration",
          "type": "uint256"
        },
        {
          "internalType": "uint256",
          "name": "_totalVestingPeriods",
          "type": "uint256"
        },
        {
          "internalType": "uint256",
          "name": "_initialRelease",
          "type": "uint256"
        },
        {
          "internalType": "uint256",
          "name": "_tokenPrice",
          "type": "uint256"
        },
        {
          "internalType": "uint256",
          "name": "_tokensForSale",
          "type": "uint256"
        }
      ],
      "stateMutability": "nonpayable",
      "type": "constructor"
    },
    {
      "inputs": [
        {
          "internalType": "address",
          "name": "target",
          "type": "address"
        }
      ],
      "name": "AddressEmptyCode",
      "type": "error"
    },
    {
      "inputs": [
        {
          "internalType": "address",
          "name": "account",
          "type": "address"
        }
      ],
      "name": "AddressInsufficientBalance",
      "type": "error"
    },
    {
      "inputs": [
        {
          "internalType": "uint256",
          "name": "_tokenAmount",
          "type": "uint256"
        }
      ],
      "name": "buyTokens",
      "outputs": [],
      "stateMutability": "payable",
      "type": "function"
    },
    {
      "inputs": [],
      "name": "claimTokens",
      "outputs": [],
      "stateMutability": "nonpayable",
      "type": "function"
    },
    {
      "inputs": [],
      "name": "FailedInnerCall",
      "type": "error"
    },
    {
      "inputs": [
        {
          "internalType": "address",
          "name": "owner",
          "type": "address"
        }
      ],
      "name": "OwnableInvalidOwner",
      "type": "error"
    },
    {
      "inputs": [
        {
          "internalType": "address",
          "name": "account",
          "type": "address"
        }
      ],
      "name": "OwnableUnauthorizedAccount",
      "type": "error"
    },
    {
      "inputs": [],
      "name": "renounceOwnership",
      "outputs": [],
      "stateMutability": "nonpayable",
      "type": "function"
    },
    {
      "inputs": [
        {
          "internalType": "address",
          "name": "token",
          "type": "address"
        }
      ],
      "name": "SafeERC20FailedOperation",
      "type": "error"
    },
    {
      "anonymous": false,
      "inputs": [
        {
          "indexed": false,
          "internalType": "uint256",
          "name": "tokenAmount",
          "type": "uint256"
        },
        {
          "indexed": false,
          "internalType": "uint256",
          "name": "cost",
          "type": "uint256"
        },
        {
          "indexed": false,
          "internalType": "uint256",
          "name": "msgValue",
          "type": "uint256"
        },
        {
          "indexed": false,
          "internalType": "uint256",
          "name": "tokenPrice",
          "type": "uint256"
        }
      ],
      "name": "DebugBuyTokens",
      "type": "event"
    },
    {
      "anonymous": false,
      "inputs": [
        {
          "indexed": false,
          "internalType": "bool",
          "name": "status",
          "type": "bool"
        }
      ],
      "name": "EmergencyStopActivated",
      "type": "event"
    },
    {
      "anonymous": false,
      "inputs": [
        {
          "indexed": true,
          "internalType": "address",
          "name": "previousOwner",
          "type": "address"
        },
        {
          "indexed": true,
          "internalType": "address",
          "name": "newOwner",
          "type": "address"
        }
      ],
      "name": "OwnershipTransferred",
      "type": "event"
    },
    {
      "anonymous": false,
      "inputs": [
        {
          "indexed": false,
          "internalType": "uint256",
          "name": "startTime",
          "type": "uint256"
        },
        {
          "indexed": false,
          "internalType": "uint256",
          "name": "endTime",
          "type": "uint256"
        }
      ],
      "name": "PresaleStarted",
      "type": "event"
    },
    {
      "inputs": [],
      "name": "setEmergencyOff",
      "outputs": [],
      "stateMutability": "nonpayable",
      "type": "function"
    },
    {
      "inputs": [],
      "name": "setEmergencyOn",
      "outputs": [],
      "stateMutability": "nonpayable",
      "type": "function"
    },
    {
      "inputs": [
        {
          "internalType": "uint256",
          "name": "_newPrice",
          "type": "uint256"
        }
      ],
      "name": "setTokenPrice",
      "outputs": [],
      "stateMutability": "nonpayable",
      "type": "function"
    },
    {
      "inputs": [],
      "name": "startPresale",
      "outputs": [],
      "stateMutability": "nonpayable",
      "type": "function"
    },
    {
      "anonymous": false,
      "inputs": [
        {
          "indexed": false,
          "internalType": "uint256",
          "name": "newPrice",
          "type": "uint256"
        }
      ],
      "name": "TokenPriceUpdated",
      "type": "event"
    },
    {
      "anonymous": false,
      "inputs": [
        {
          "indexed": true,
          "internalType": "address",
          "name": "beneficiary",
          "type": "address"
        },
        {
          "indexed": false,
          "internalType": "uint256",
          "name": "amount",
          "type": "uint256"
        }
      ],
      "name": "TokensClaimed",
      "type": "event"
    },
    {
      "anonymous": false,
      "inputs": [
        {
          "indexed": true,
          "internalType": "address",
          "name": "buyer",
          "type": "address"
        },
        {
          "indexed": false,
          "internalType": "uint256",
          "name": "amount",
          "type": "uint256"
        },
        {
          "indexed": false,
          "internalType": "uint256",
          "name": "cost",
          "type": "uint256"
        }
      ],
      "name": "TokensPurchased",
      "type": "event"
    },
    {
      "inputs": [
        {
          "internalType": "address",
          "name": "newOwner",
          "type": "address"
        }
      ],
      "name": "transferOwnership",
      "outputs": [],
      "stateMutability": "nonpayable",
      "type": "function"
    },
    {
      "inputs": [],
      "name": "withdrawFunds",
      "outputs": [],
      "stateMutability": "nonpayable",
      "type": "function"
    },
    {
      "inputs": [],
      "name": "withdrawUnsoldTokens",
      "outputs": [],
      "stateMutability": "nonpayable",
      "type": "function"
    },
    {
      "inputs": [
        {
          "internalType": "uint256",
          "name": "_tokenAmount",
          "type": "uint256"
        }
      ],
      "name": "calculateCost",
      "outputs": [
        {
          "internalType": "uint256",
          "name": "",
          "type": "uint256"
        }
      ],
      "stateMutability": "view",
      "type": "function"
    },
    {
      "inputs": [
        {
          "internalType": "address",
          "name": "",
          "type": "address"
        }
      ],
      "name": "claimedTokens",
      "outputs": [
        {
          "internalType": "uint256",
          "name": "",
          "type": "uint256"
        }
      ],
      "stateMutability": "view",
      "type": "function"
    },
    {
      "inputs": [],
      "name": "emergencyStop",
      "outputs": [
        {
          "internalType": "bool",
          "name": "",
          "type": "bool"
        }
      ],
      "stateMutability": "view",
      "type": "function"
    },
    {
      "inputs": [],
      "name": "getContractBalance",
      "outputs": [
        {
          "internalType": "uint256",
          "name": "tokenBalance",
          "type": "uint256"
        },
        {
          "internalType": "uint256",
          "name": "ethBalance",
          "type": "uint256"
        }
      ],
      "stateMutability": "view",
      "type": "function"
    },
    {
      "inputs": [],
      "name": "getPresaleStatus",
      "outputs": [
        {
          "internalType": "bool",
          "name": "isActive",
          "type": "bool"
        },
        {
          "internalType": "uint256",
          "name": "timeRemaining",
          "type": "uint256"
        }
      ],
      "stateMutability": "view",
      "type": "function"
    },
    {
      "inputs": [],
      "name": "getTokenPriceInEth",
      "outputs": [
        {
          "internalType": "uint256",
          "name": "",
          "type": "uint256"
        }
      ],
      "stateMutability": "view",
      "type": "function"
    },
    {
      "inputs": [],
      "name": "getTokenPriceInWei",
      "outputs": [
        {
          "internalType": "uint256",
          "name": "",
          "type": "uint256"
        }
      ],
      "stateMutability": "view",
      "type": "function"
    },
    {
      "inputs": [],
      "name": "getTokensRemaining",
      "outputs": [
        {
          "internalType": "uint256",
          "name": "",
          "type": "uint256"
        }
      ],
      "stateMutability": "view",
      "type": "function"
    },
    {
      "inputs": [],
      "name": "getTokensSold",
      "outputs": [
        {
          "internalType": "uint256",
          "name": "",
          "type": "uint256"
        }
      ],
      "stateMutability": "view",
      "type": "function"
    },
    {
      "inputs": [
        {
          "internalType": "address",
          "name": "user",
          "type": "address"
        }
      ],
      "name": "getUserBalance",
      "outputs": [
        {
          "internalType": "uint256",
          "name": "purchased",
          "type": "uint256"
        },
        {
          "internalType": "uint256",
          "name": "claimed",
          "type": "uint256"
        },
        {
          "internalType": "uint256",
          "name": "claimable",
          "type": "uint256"
        }
      ],
      "stateMutability": "view",
      "type": "function"
    },
    {
      "inputs": [],
      "name": "getVestingSchedule",
      "outputs": [
        {
          "internalType": "uint256",
          "name": "_initialRelease",
          "type": "uint256"
        },
        {
          "internalType": "uint256",
          "name": "_totalPeriods",
          "type": "uint256"
        },
        {
          "internalType": "uint256",
          "name": "_periodDuration",
          "type": "uint256"
        },
        {
          "internalType": "uint256",
          "name": "_vestingDuration",
          "type": "uint256"
        }
      ],
      "stateMutability": "view",
      "type": "function"
    },
    {
      "inputs": [],
      "name": "initialRelease",
      "outputs": [
        {
          "internalType": "uint256",
          "name": "",
          "type": "uint256"
        }
      ],
      "stateMutability": "view",
      "type": "function"
    },
    {
      "inputs": [
        {
          "internalType": "address",
          "name": "",
          "type": "address"
        }
      ],
      "name": "lastClaimTime",
      "outputs": [
        {
          "internalType": "uint256",
          "name": "",
          "type": "uint256"
        }
      ],
      "stateMutability": "view",
      "type": "function"
    },
    {
      "inputs": [],
      "name": "owner",
      "outputs": [
        {
          "internalType": "address",
          "name": "",
          "type": "address"
        }
      ],
      "stateMutability": "view",
      "type": "function"
    },
    {
      "inputs": [],
      "name": "periodDuration",
      "outputs": [
        {
          "internalType": "uint256",
          "name": "",
          "type": "uint256"
        }
      ],
      "stateMutability": "view",
      "type": "function"
    },
    {
      "inputs": [],
      "name": "presaleEndTime",
      "outputs": [
        {
          "internalType": "uint256",
          "name": "",
          "type": "uint256"
        }
      ],
      "stateMutability": "view",
      "type": "function"
    },
    {
      "inputs": [],
      "name": "presaleStarted",
      "outputs": [
        {
          "internalType": "bool",
          "name": "",
          "type": "bool"
        }
      ],
      "stateMutability": "view",
      "type": "function"
    },
    {
      "inputs": [
        {
          "internalType": "address",
          "name": "",
          "type": "address"
        }
      ],
      "name": "purchasedTokens",
      "outputs": [
        {
          "internalType": "uint256",
          "name": "",
          "type": "uint256"
        }
      ],
      "stateMutability": "view",
      "type": "function"
    },
    {
      "inputs": [],
      "name": "token",
      "outputs": [
        {
          "internalType": "contract IERC20",
          "name": "",
          "type": "address"
        }
      ],
      "stateMutability": "view",
      "type": "function"
    },
    {
      "inputs": [],
      "name": "tokenPrice",
      "outputs": [
        {
          "internalType": "uint256",
          "name": "",
          "type": "uint256"
        }
      ],
      "stateMutability": "view",
      "type": "function"
    },
    {
      "inputs": [],
      "name": "tokensForSale",
      "outputs": [
        {
          "internalType": "uint256",
          "name": "",
          "type": "uint256"
        }
      ],
      "stateMutability": "view",
      "type": "function"
    },
    {
      "inputs": [],
      "name": "totalTokensSold",
      "outputs": [
        {
          "internalType": "uint256",
          "name": "",
          "type": "uint256"
        }
      ],
      "stateMutability": "view",
      "type": "function"
    },
    {
      "inputs": [],
      "name": "totalVestingPeriods",
      "outputs": [
        {
          "internalType": "uint256",
          "name": "",
          "type": "uint256"
        }
      ],
      "stateMutability": "view",
      "type": "function"
    },
    {
      "inputs": [],
      "name": "vestingDuration",
      "outputs": [
        {
          "internalType": "uint256",
          "name": "",
          "type": "uint256"
        }
      ],
      "stateMutability": "view",
      "type": "function"
    }
  ],
  "bytecode": "61014060405234801562000011575f80fd5b50604051620035d6380380620035d68339818101604052810190620000379190620003b4565b3360015f819055505f73ffffffffffffffffffffffffffffffffffffffff168173ffffffffffffffffffffffffffffffffffffffff1603620000b2575f6040517f1e4fbdf7000000000000000000000000000000000000000000000000000000008152600401620000a9919062000473565b60405180910390fd5b620000c3816200025460201b60201c565b505f73ffffffffffffffffffffffffffffffffffffffff168773ffffffffffffffffffffffffffffffffffffffff160362000135576040517f08c379a00000000000000000000000000000000000000000000000000000000081526004016200012c90620004ec565b60405180910390fd5b5f84116200017a576040517f08c379a000000000000000000000000000000000000000000000000000000000815260040162000171906200055a565b60405180910390fd5b6064831115620001c1576040517f08c379a0000000000000000000000000000000000000000000000000000000008152600401620001b890620005ee565b60405180910390fd5b8673ffffffffffffffffffffffffffffffffffffffff1660808173ffffffffffffffffffffffffffffffffffffffff168152505085426200020391906200063b565b60a081815250508460c081815250508360e081815250508385620002289190620006a2565b6101008181525050826101208181525050816002819055508060038190555050505050505050620006d9565b5f60015f9054906101000a900473ffffffffffffffffffffffffffffffffffffffff1690508160015f6101000a81548173ffffffffffffffffffffffffffffffffffffffff021916908373ffffffffffffffffffffffffffffffffffffffff1602179055508173ffffffffffffffffffffffffffffffffffffffff168173ffffffffffffffffffffffffffffffffffffffff167f8be0079c531659141344cd1fd0a4f28419497f9722a3daafe3b4186f6b6457e060405160405180910390a35050565b5f80fd5b5f73ffffffffffffffffffffffffffffffffffffffff82169050919050565b5f62000346826200031b565b9050919050565b62000358816200033a565b811462000363575f80fd5b50565b5f8151905062000376816200034d565b92915050565b5f819050919050565b62000390816200037c565b81146200039b575f80fd5b50565b5f81519050620003ae8162000385565b92915050565b5f805f805f805f60e0888a031215620003d257620003d162000317565b5b5f620003e18a828b0162000366565b9750506020620003f48a828b016200039e565b9650506040620004078a828b016200039e565b95505060606200041a8a828b016200039e565b94505060806200042d8a828b016200039e565b93505060a0620004408a828b016200039e565b92505060c0620004538a828b016200039e565b91505092959891949750929550565b6200046d816200033a565b82525050565b5f602082019050620004885f83018462000462565b92915050565b5f82825260208201905092915050565b7f496e76616c696420746f6b656e206164647265737300000000000000000000005f82015250565b5f620004d46015836200048e565b9150620004e1826200049e565b602082019050919050565b5f6020820190508181035f8301526200050581620004c6565b9050919050565b7f496e76616c69642076657374696e6720706572696f64730000000000000000005f82015250565b5f620005426017836200048e565b91506200054f826200050c565b602082019050919050565b5f6020820190508181035f830152620005738162000534565b9050919050565b7f496e76616c696420696e697469616c2072656c656173652070657263656e74615f8201527f6765000000000000000000000000000000000000000000000000000000000000602082015250565b5f620005d66022836200048e565b9150620005e3826200057a565b604082019050919050565b5f6020820190508181035f8301526200060781620005c8565b9050919050565b7f4e487b71000000000000000000000000000000000000000000000000000000005f52601160045260245ffd5b5f62000647826200037c565b915062000654836200037c565b92508282019050808211156200066f576200066e6200060e565b5b92915050565b7f4e487b71000000000000000000000000000000000000000000000000000000005f52601260045260245ffd5b5f620006ae826200037c565b9150620006bb836200037c565b925082620006ce57620006cd62000675565b5b828204905092915050565b60805160a05160c05160e0516101005161012051612e29620007ad5f395f8181610d87015281816113750152611a6901525f8181610dc9015281816114660152611ae001525f8181610da8015281816113a801528181611b0e01528181611b360152611b5b01525f81816108390152610dea01525f81816107fa0152818161095e01528181610a2801528181610f38015281816114a7015281816115cc0152818161160e015281816119b50152611ab101525f818161113e015281816112c10152818161158101526117350152612e295ff3fe6080604052600436106101f8575f3560e01c80636f9fb98a1161010c578063a960c65f1161009f578063d7517caa1161006e578063d7517caa14610696578063d95e4015146106c1578063ee7c0db0146106d7578063f2fde38b14610701578063fc0c546a14610729576101f8565b8063a960c65f146105de578063b470aade1461061a578063b77cf9c614610644578063c8bdbfb614610680576101f8565b8063872ffd71116100db578063872ffd711461054a5780638878e427146105745780638da5cb5b1461059e57806394f7daa1146105c8576101f8565b80636f9fb98a146104b5578063715018a6146104e05780637b5c2f39146104f65780637ff9b59614610520576101f8565b80633aab92741161018f5780634af18f4f1161015e5780634af18f4f146103c15780634bae6f3f146103fd57806363a599a41461043957806363b20117146104635780636a61e5fc1461048d576101f8565b80633aab92741461031957806346ad585914610343578063477348921461036d57806348c54b9d146103ab576101f8565b806324600fc3116101cb57806324600fc314610290578063249b7c19146102a65780633610724e146102d05780633a05f0d8146102ec576101f8565b806304549d6f146101fc57806304c98b2b1461022657806312aef8c31461023c5780631514617e14610266575b5f80fd5b348015610207575f80fd5b50610210610753565b60405161021d9190611f5f565b60405180910390f35b348015610231575f80fd5b5061023a610765565b005b348015610247575f80fd5b50610250610831565b60405161025d9190611f90565b60405180910390f35b348015610271575f80fd5b5061027a610837565b6040516102879190611f90565b60405180910390f35b34801561029b575f80fd5b506102a461085b565b005b3480156102b1575f80fd5b506102ba61095c565b6040516102c79190611f90565b60405180910390f35b6102ea60048036038101906102e59190611fd7565b610980565b005b3480156102f7575f80fd5b50610300610d81565b6040516103109493929190612002565b60405180910390f35b348015610324575f80fd5b5061032d610e17565b60405161033a9190611f90565b60405180910390f35b34801561034e575f80fd5b50610357610e33565b6040516103649190611f90565b60405180910390f35b348015610378575f80fd5b50610393600480360381019061038e919061209f565b610e49565b6040516103a2939291906120ca565b60405180910390f35b3480156103b6575f80fd5b506103bf610ede565b005b3480156103cc575f80fd5b506103e760048036038101906103e29190611fd7565b6111db565b6040516103f49190611f90565b60405180910390f35b348015610408575f80fd5b50610423600480360381019061041e919061209f565b6111f1565b6040516104309190611f90565b60405180910390f35b348015610444575f80fd5b5061044d611206565b60405161045a9190611f5f565b60405180910390f35b34801561046e575f80fd5b50610477611219565b6040516104849190611f90565b60405180910390f35b348015610498575f80fd5b506104b360048036038101906104ae9190611fd7565b61121f565b005b3480156104c0575f80fd5b506104c96112bd565b6040516104d79291906120ff565b60405180910390f35b3480156104eb575f80fd5b506104f4611360565b005b348015610501575f80fd5b5061050a611373565b6040516105179190611f90565b60405180910390f35b34801561052b575f80fd5b50610534611397565b6040516105419190611f90565b60405180910390f35b348015610555575f80fd5b5061055e61139d565b60405161056b9190611f90565b60405180910390f35b34801561057f575f80fd5b506105886113a6565b6040516105959190611f90565b60405180910390f35b3480156105a9575f80fd5b506105b26113ca565b6040516105bf9190612135565b60405180910390f35b3480156105d3575f80fd5b506105dc6113f2565b005b3480156105e9575f80fd5b5061060460048036038101906105ff919061209f565b61144f565b6040516106119190611f90565b60405180910390f35b348015610625575f80fd5b5061062e611464565b60405161063b9190611f90565b60405180910390f35b34801561064f575f80fd5b5061066a6004803603810190610665919061209f565b611488565b6040516106779190611f90565b60405180910390f35b34801561068b575f80fd5b5061069461149d565b005b3480156106a1575f80fd5b506106aa6115c8565b6040516106b892919061214e565b60405180910390f35b3480156106cc575f80fd5b506106d561164b565b005b3480156106e2575f80fd5b506106eb6116a6565b6040516106f89190611f90565b60405180910390f35b34801561070c575f80fd5b506107276004803603810190610722919061209f565b6116af565b005b348015610734575f80fd5b5061073d611733565b60405161074a91906121d0565b60405180910390f35b60085f9054906101000a900460ff1681565b61076d611757565b60085f9054906101000a900460ff16156107bc576040517f08c379a00000000000000000000000000000000000000000000000000000000081526004016107b390612243565b60405180910390fd5b600160085f6101000a81548160ff0219169083151502179055507f884f0ecd854b5bcb742f0156e594094458bddc3f2cc8c9e4048a7cedfa6f01cc427f00000000000000000000000000000000000000000000000000000000000000006040516108279291906120ff565b60405180910390a1565b60035481565b7f000000000000000000000000000000000000000000000000000000000000000081565b610863611757565b5f4790505f81116108a9576040517f08c379a00000000000000000000000000000000000000000000000000000000081526004016108a0906122ab565b60405180910390fd5b5f6108b26113ca565b73ffffffffffffffffffffffffffffffffffffffff16826040516108d5906122f6565b5f6040518083038185875af1925050503d805f811461090f576040519150601f19603f3d011682016040523d82523d5f602084013e610914565b606091505b5050905080610958576040517f08c379a000000000000000000000000000000000000000000000000000000000815260040161094f90612354565b60405180910390fd5b5050565b7f000000000000000000000000000000000000000000000000000000000000000081565b6109886117de565b600860019054906101000a900460ff16156109d8576040517f08c379a00000000000000000000000000000000000000000000000000000000081526004016109cf906123bc565b60405180910390fd5b60085f9054906101000a900460ff16610a26576040517f08c379a0000000000000000000000000000000000000000000000000000000008152600401610a1d90612424565b60405180910390fd5b7f0000000000000000000000000000000000000000000000000000000000000000421115610a89576040517f08c379a0000000000000000000000000000000000000000000000000000000008152600401610a809061248c565b60405180910390fd5b5f8111610acb576040517f08c379a0000000000000000000000000000000000000000000000000000000008152600401610ac2906124f4565b60405180910390fd5b60035481600454610adc919061253f565b1115610b1d576040517f08c379a0000000000000000000000000000000000000000000000000000000008152600401610b14906125bc565b60405180910390fd5b5f670de0b6b3a764000060025483610b3591906125da565b610b3f9190612648565b90507fe8d841ee9f21c3069e9cc52a244458628c4471912b0d3da93d5c5737f03f9a62828234600254604051610b789493929190612002565b60405180910390a180341015610b8d8261182b565b610b963461182b565b604051602001610ba79291906127c2565b60405160208183030381529060405290610bf7576040517f08c379a0000000000000000000000000000000000000000000000000000000008152600401610bee919061284e565b60405180910390fd5b508160055f3373ffffffffffffffffffffffffffffffffffffffff1673ffffffffffffffffffffffffffffffffffffffff1681526020019081526020015f205f828254610c44919061253f565b925050819055508160045f828254610c5c919061253f565b925050819055503373ffffffffffffffffffffffffffffffffffffffff167f8fafebcaf9d154343dad25669bfa277f4fbacd7ac6b0c4fed522580e040a0f338383604051610cab9291906120ff565b60405180910390a280341115610d75575f8134610cc8919061286e565b90505f3373ffffffffffffffffffffffffffffffffffffffff1682604051610cef906122f6565b5f6040518083038185875af1925050503d805f8114610d29576040519150601f19603f3d011682016040523d82523d5f602084013e610d2e565b606091505b5050905080610d72576040517f08c379a0000000000000000000000000000000000000000000000000000000008152600401610d69906128eb565b60405180910390fd5b50505b50610d7e6119a9565b50565b5f805f807f00000000000000000000000000000000000000000000000000000000000000007f00000000000000000000000000000000000000000000000000000000000000007f00000000000000000000000000000000000000000000000000000000000000007f0000000000000000000000000000000000000000000000000000000000000000935093509350935090919293565b5f670de0b6b3a7640000600254610e2e9190612648565b905090565b5f600454600354610e44919061286e565b905090565b5f805f60055f8573ffffffffffffffffffffffffffffffffffffffff1673ffffffffffffffffffffffffffffffffffffffff1681526020019081526020015f2054925060065f8573ffffffffffffffffffffffffffffffffffffffff1673ffffffffffffffffffffffffffffffffffffffff1681526020019081526020015f20549150610ed5846119b2565b90509193909250565b610ee66117de565b600860019054906101000a900460ff1615610f36576040517f08c379a0000000000000000000000000000000000000000000000000000000008152600401610f2d906123bc565b60405180910390fd5b7f00000000000000000000000000000000000000000000000000000000000000004211610f98576040517f08c379a0000000000000000000000000000000000000000000000000000000008152600401610f8f90612953565b60405180910390fd5b60065f3373ffffffffffffffffffffffffffffffffffffffff1673ffffffffffffffffffffffffffffffffffffffff1681526020019081526020015f205460055f3373ffffffffffffffffffffffffffffffffffffffff1673ffffffffffffffffffffffffffffffffffffffff1681526020019081526020015f205411611054576040517f08c379a000000000000000000000000000000000000000000000000000000000815260040161104b906129bb565b60405180910390fd5b5f61105e336119b2565b90505f81116110a2576040517f08c379a000000000000000000000000000000000000000000000000000000000815260040161109990612a49565b60405180910390fd5b8060065f3373ffffffffffffffffffffffffffffffffffffffff1673ffffffffffffffffffffffffffffffffffffffff1681526020019081526020015f205f8282546110ee919061253f565b925050819055504260075f3373ffffffffffffffffffffffffffffffffffffffff1673ffffffffffffffffffffffffffffffffffffffff1681526020019081526020015f208190555061118233827f000000000000000000000000000000000000000000000000000000000000000073ffffffffffffffffffffffffffffffffffffffff16611bb89092919063ffffffff16565b3373ffffffffffffffffffffffffffffffffffffffff167f896e034966eaaf1adc54acc0f257056febbd300c9e47182cf761982cf1f5e430826040516111c89190611f90565b60405180910390a2506111d96119a9565b565b5f600254826111ea91906125da565b9050919050565b6005602052805f5260405f205f915090505481565b600860019054906101000a900460ff1681565b60045481565b611227611757565b5f8111611269576040517f08c379a000000000000000000000000000000000000000000000000000000000815260040161126090612ab1565b60405180910390fd5b655af3107a40008161127b91906125da565b6002819055507f6b361c807733cc94a3b7bda39c1c94dcc0511e91aa47b0f7f918068e939768906002546040516112b29190611f90565b60405180910390a150565b5f807f000000000000000000000000000000000000000000000000000000000000000073ffffffffffffffffffffffffffffffffffffffff166370a08231306040518263ffffffff1660e01b81526004016113189190612135565b602060405180830381865afa158015611333573d5f803e3d5ffd5b505050506040513d601f19601f820116820180604052508101906113579190612ae3565b91504790509091565b611368611757565b6113715f611c37565b565b7f000000000000000000000000000000000000000000000000000000000000000081565b60025481565b5f600254905090565b7f000000000000000000000000000000000000000000000000000000000000000081565b5f60015f9054906101000a900473ffffffffffffffffffffffffffffffffffffffff16905090565b6113fa611757565b6001600860016101000a81548160ff0219169083151502179055507f5a31d3fca706d362eefe019ff26d6a216e2bb85e7f086256c1323fd6f026f4a360016040516114459190611f5f565b60405180910390a1565b6006602052805f5260405f205f915090505481565b7f000000000000000000000000000000000000000000000000000000000000000081565b6007602052805f5260405f205f915090505481565b6114a5611757565b7f00000000000000000000000000000000000000000000000000000000000000004211806114df5750600860019054906101000a900460ff165b61151e576040517f08c379a000000000000000000000000000000000000000000000000000000000815260040161151590612b58565b60405180910390fd5b5f60045460035461152f919061286e565b90505f8111611573576040517f08c379a000000000000000000000000000000000000000000000000000000000815260040161156a90612bc0565b60405180910390fd5b6115c561157e6113ca565b827f000000000000000000000000000000000000000000000000000000000000000073ffffffffffffffffffffffffffffffffffffffff16611bb89092919063ffffffff16565b50565b5f807f000000000000000000000000000000000000000000000000000000000000000042108015611604575060085f9054906101000a900460ff165b15611640576001427f0000000000000000000000000000000000000000000000000000000000000000611637919061286e565b91509150611647565b5f80915091505b9091565b611653611757565b5f600860016101000a81548160ff0219169083151502179055507f5a31d3fca706d362eefe019ff26d6a216e2bb85e7f086256c1323fd6f026f4a35f60405161169c9190611f5f565b60405180910390a1565b5f600454905090565b6116b7611757565b5f73ffffffffffffffffffffffffffffffffffffffff168173ffffffffffffffffffffffffffffffffffffffff1603611727575f6040517f1e4fbdf700000000000000000000000000000000000000000000000000000000815260040161171e9190612135565b60405180910390fd5b61173081611c37565b50565b7f000000000000000000000000000000000000000000000000000000000000000081565b61175f611cfa565b73ffffffffffffffffffffffffffffffffffffffff1661177d6113ca565b73ffffffffffffffffffffffffffffffffffffffff16146117dc576117a0611cfa565b6040517f118cdaa70000000000000000000000000000000000000000000000000000000081526004016117d39190612135565b60405180910390fd5b565b60025f5403611822576040517f08c379a000000000000000000000000000000000000000000000000000000000815260040161181990612c28565b60405180910390fd5b60025f81905550565b60605f8203611871576040518060400160405280600181526020017f300000000000000000000000000000000000000000000000000000000000000081525090506119a4565b5f8290505f5b5f82146118a057808061188990612c46565b915050600a826118999190612648565b9150611877565b5f8167ffffffffffffffff8111156118bb576118ba612c8d565b5b6040519080825280601f01601f1916602001820160405280156118ed5781602001600182028036833780820191505090505b5090505f8290505b5f861461199c57600181611909919061286e565b90505f600a808861191a9190612648565b61192491906125da565b8761192f919061286e565b603061193b9190612cc6565b90505f8160f81b90508084848151811061195857611957612cfa565b5b60200101907effffffffffffffffffffffffffffffffffffffffffffffffffffffffffffff191690815f1a905350600a886119939190612648565b975050506118f5565b819450505050505b919050565b60015f81905550565b5f7f000000000000000000000000000000000000000000000000000000000000000042116119e2575f9050611bb3565b5f60055f8473ffffffffffffffffffffffffffffffffffffffff1673ffffffffffffffffffffffffffffffffffffffff1681526020019081526020015f205490505f60065f8573ffffffffffffffffffffffffffffffffffffffff1673ffffffffffffffffffffffffffffffffffffffff1681526020019081526020015f205490505f60647f000000000000000000000000000000000000000000000000000000000000000084611a9391906125da565b611a9d9190612648565b90505f8184611aac919061286e565b90505f7f000000000000000000000000000000000000000000000000000000000000000042611adb919061286e565b90505f7f000000000000000000000000000000000000000000000000000000000000000082611b0a9190612648565b90507f0000000000000000000000000000000000000000000000000000000000000000811115611b58577f000000000000000000000000000000000000000000000000000000000000000090505b5f7f00000000000000000000000000000000000000000000000000000000000000008285611b8691906125da565b611b909190612648565b85611b9b919061253f565b90508581611ba9919061286e565b9750505050505050505b919050565b611c32838473ffffffffffffffffffffffffffffffffffffffff1663a9059cbb8585604051602401611beb929190612d27565b604051602081830303815290604052915060e01b6020820180517bffffffffffffffffffffffffffffffffffffffffffffffffffffffff8381831617835250505050611d01565b505050565b5f60015f9054906101000a900473ffffffffffffffffffffffffffffffffffffffff1690508160015f6101000a81548173ffffffffffffffffffffffffffffffffffffffff021916908373ffffffffffffffffffffffffffffffffffffffff1602179055508173ffffffffffffffffffffffffffffffffffffffff168173ffffffffffffffffffffffffffffffffffffffff167f8be0079c531659141344cd1fd0a4f28419497f9722a3daafe3b4186f6b6457e060405160405180910390a35050565b5f33905090565b5f611d2b828473ffffffffffffffffffffffffffffffffffffffff16611d9690919063ffffffff16565b90505f815114158015611d4f575080806020019051810190611d4d9190612d78565b155b15611d9157826040517f5274afe7000000000000000000000000000000000000000000000000000000008152600401611d889190612135565b60405180910390fd5b505050565b6060611da383835f611dab565b905092915050565b606081471015611df257306040517fcd786059000000000000000000000000000000000000000000000000000000008152600401611de99190612135565b60405180910390fd5b5f808573ffffffffffffffffffffffffffffffffffffffff168486604051611e1a9190612ddd565b5f6040518083038185875af1925050503d805f8114611e54576040519150601f19603f3d011682016040523d82523d5f602084013e611e59565b606091505b5091509150611e69868383611e74565b925050509392505050565b606082611e8957611e8482611f01565b611ef9565b5f8251148015611eaf57505f8473ffffffffffffffffffffffffffffffffffffffff163b145b15611ef157836040517f9996b315000000000000000000000000000000000000000000000000000000008152600401611ee89190612135565b60405180910390fd5b819050611efa565b5b9392505050565b5f81511115611f135780518082602001fd5b6040517f1425ea4200000000000000000000000000000000000000000000000000000000815260040160405180910390fd5b5f8115159050919050565b611f5981611f45565b82525050565b5f602082019050611f725f830184611f50565b92915050565b5f819050919050565b611f8a81611f78565b82525050565b5f602082019050611fa35f830184611f81565b92915050565b5f80fd5b611fb681611f78565b8114611fc0575f80fd5b50565b5f81359050611fd181611fad565b92915050565b5f60208284031215611fec57611feb611fa9565b5b5f611ff984828501611fc3565b91505092915050565b5f6080820190506120155f830187611f81565b6120226020830186611f81565b61202f6040830185611f81565b61203c6060830184611f81565b95945050505050565b5f73ffffffffffffffffffffffffffffffffffffffff82169050919050565b5f61206e82612045565b9050919050565b61207e81612064565b8114612088575f80fd5b50565b5f8135905061209981612075565b92915050565b5f602082840312156120b4576120b3611fa9565b5b5f6120c18482850161208b565b91505092915050565b5f6060820190506120dd5f830186611f81565b6120ea6020830185611f81565b6120f76040830184611f81565b949350505050565b5f6040820190506121125f830185611f81565b61211f6020830184611f81565b9392505050565b61212f81612064565b82525050565b5f6020820190506121485f830184612126565b92915050565b5f6040820190506121615f830185611f50565b61216e6020830184611f81565b9392505050565b5f819050919050565b5f61219861219361218e84612045565b612175565b612045565b9050919050565b5f6121a98261217e565b9050919050565b5f6121ba8261219f565b9050919050565b6121ca816121b0565b82525050565b5f6020820190506121e35f8301846121c1565b92915050565b5f82825260208201905092915050565b7f50726573616c6520616c726561647920737461727465640000000000000000005f82015250565b5f61222d6017836121e9565b9150612238826121f9565b602082019050919050565b5f6020820190508181035f83015261225a81612221565b9050919050565b7f4e6f2066756e647320746f2077697468647261770000000000000000000000005f82015250565b5f6122956014836121e9565b91506122a082612261565b602082019050919050565b5f6020820190508181035f8301526122c281612289565b9050919050565b5f81905092915050565b50565b5f6122e15f836122c9565b91506122ec826122d3565b5f82019050919050565b5f612300826122d6565b9150819050919050565b7f4661696c656420746f2073656e642045544800000000000000000000000000005f82015250565b5f61233e6012836121e9565b91506123498261230a565b602082019050919050565b5f6020820190508181035f83015261236b81612332565b9050919050565b7f436f6e74726163742069732070617573656400000000000000000000000000005f82015250565b5f6123a66012836121e9565b91506123b182612372565b602082019050919050565b5f6020820190508181035f8301526123d38161239a565b9050919050565b7f50726573616c6520686173206e6f7420737461727465640000000000000000005f82015250565b5f61240e6017836121e9565b9150612419826123da565b602082019050919050565b5f6020820190508181035f83015261243b81612402565b9050919050565b7f50726573616c652068617320656e6465640000000000000000000000000000005f82015250565b5f6124766011836121e9565b915061248182612442565b602082019050919050565b5f6020820190508181035f8301526124a38161246a565b9050919050565b7f496e76616c696420746f6b656e20616d6f756e740000000000000000000000005f82015250565b5f6124de6014836121e9565b91506124e9826124aa565b602082019050919050565b5f6020820190508181035f83015261250b816124d2565b9050919050565b7f4e487b71000000000000000000000000000000000000000000000000000000005f52601160045260245ffd5b5f61254982611f78565b915061255483611f78565b925082820190508082111561256c5761256b612512565b5b92915050565b7f4e6f7420656e6f75676820746f6b656e73206c65667420666f722073616c65005f82015250565b5f6125a6601f836121e9565b91506125b182612572565b602082019050919050565b5f6020820190508181035f8301526125d38161259a565b9050919050565b5f6125e482611f78565b91506125ef83611f78565b92508282026125fd81611f78565b9150828204841483151761261457612613612512565b5b5092915050565b7f4e487b71000000000000000000000000000000000000000000000000000000005f52601260045260245ffd5b5f61265282611f78565b915061265d83611f78565b92508261266d5761266c61261b565b5b828204905092915050565b5f81905092915050565b7f496e636f7272656374204554482073656e742e2052657175697265643a2000005f82015250565b5f6126b6601e83612678565b91506126c182612682565b601e82019050919050565b5f81519050919050565b5f5b838110156126f35780820151818401526020810190506126d8565b5f8484015250505050565b5f612708826126cc565b6127128185612678565b93506127228185602086016126d6565b80840191505092915050565b7f207765692c2053656e743a2000000000000000000000000000000000000000005f82015250565b5f612762600c83612678565b915061276d8261272e565b600c82019050919050565b7f20776569000000000000000000000000000000000000000000000000000000005f82015250565b5f6127ac600483612678565b91506127b782612778565b600482019050919050565b5f6127cc826126aa565b91506127d882856126fe565b91506127e382612756565b91506127ef82846126fe565b91506127fa826127a0565b91508190509392505050565b5f601f19601f8301169050919050565b5f612820826126cc565b61282a81856121e9565b935061283a8185602086016126d6565b61284381612806565b840191505092915050565b5f6020820190508181035f8301526128668184612816565b905092915050565b5f61287882611f78565b915061288383611f78565b925082820390508181111561289b5761289a612512565b5b92915050565b7f4661696c656420746f2073656e6420726566756e6400000000000000000000005f82015250565b5f6128d56015836121e9565b91506128e0826128a1565b602082019050919050565b5f6020820190508181035f830152612902816128c9565b9050919050565b7f56657374696e6720686173206e6f7420737461727465642079657400000000005f82015250565b5f61293d601b836121e9565b915061294882612909565b602082019050919050565b5f6020820190508181035f83015261296a81612931565b9050919050565b7f4e6f20746f6b656e7320617661696c61626c6520746f20636c61696d000000005f82015250565b5f6129a5601c836121e9565b91506129b082612971565b602082019050919050565b5f6020820190508181035f8301526129d281612999565b9050919050565b7f4e6f20746f6b656e7320617661696c61626c6520746f20636c61696d206174205f8201527f746869732074696d650000000000000000000000000000000000000000000000602082015250565b5f612a336029836121e9565b9150612a3e826129d9565b604082019050919050565b5f6020820190508181035f830152612a6081612a27565b9050919050565b7f496e76616c696420746f6b656e207072696365000000000000000000000000005f82015250565b5f612a9b6013836121e9565b9150612aa682612a67565b602082019050919050565b5f6020820190508181035f830152612ac881612a8f565b9050919050565b5f81519050612add81611fad565b92915050565b5f60208284031215612af857612af7611fa9565b5b5f612b0584828501612acf565b91505092915050565b7f50726573616c6520686173206e6f7420656e64656420796574000000000000005f82015250565b5f612b426019836121e9565b9150612b4d82612b0e565b602082019050919050565b5f6020820190508181035f830152612b6f81612b36565b9050919050565b7f4e6f20756e736f6c6420746f6b656e73000000000000000000000000000000005f82015250565b5f612baa6010836121e9565b9150612bb582612b76565b602082019050919050565b5f6020820190508181035f830152612bd781612b9e565b9050919050565b7f5265656e7472616e637947756172643a207265656e7472616e742063616c6c005f82015250565b5f612c12601f836121e9565b9150612c1d82612bde565b602082019050919050565b5f6020820190508181035f830152612c3f81612c06565b9050919050565b5f612c5082611f78565b91507fffffffffffffffffffffffffffffffffffffffffffffffffffffffffffffffff8203612c8257612c81612512565b5b600182019050919050565b7f4e487b71000000000000000000000000000000000000000000000000000000005f52604160045260245ffd5b5f60ff82169050919050565b5f612cd082612cba565b9150612cdb83612cba565b9250828201905060ff811115612cf457612cf3612512565b5b92915050565b7f4e487b71000000000000000000000000000000000000000000000000000000005f52603260045260245ffd5b5f604082019050612d3a5f830185612126565b612d476020830184611f81565b9392505050565b612d5781611f45565b8114612d61575f80fd5b50565b5f81519050612d7281612d4e565b92915050565b5f60208284031215612d8d57612d8c611fa9565b5b5f612d9a84828501612d64565b91505092915050565b5f81519050919050565b5f612db782612da3565b612dc181856122c9565b9350612dd18185602086016126d6565b80840191505092915050565b5f612de88284612dad565b91508190509291505056fea264697066735822122073039259b2ddb152b1f9e3dfd9bf1fb60f8b11adba01248acccb3ac3dfc9a59a64736f6c63430008140033",
  "linkReferences": {},
  "deployedLinkReferences": {}
}